{"abi":[{"type":"constructor","inputs":[{"name":"name","type":"string","internalType":"string"},{"name":"symbol","type":"string","internalType":"string"},{"name":"_ipfsURI","type":"string","internalType":"string"},{"name":"_dataNFTAddress","type":"address","internalType":"address"},{"name":"_price","type":"uint256","internalType":"uint256"}],"stateMutability":"nonpayable"},{"type":"receive","stateMutability":"payable"},{"type":"function","name":"CONSUMER","inputs":[],"outputs":[{"name":"","type":"bytes32","internalType":"bytes32"}],"stateMutability":"view"},{"type":"function","name":"DEFAULT_ADMIN_ROLE","inputs":[],"outputs":[{"name":"","type":"bytes32","internalType":"bytes32"}],"stateMutability":"view"},{"type":"function","name":"MODEL_DEVELOPER","inputs":[],"outputs":[{"name":"","type":"bytes32","internalType":"bytes32"}],"stateMutability":"view"},{"type":"function","name":"approve","inputs":[{"name":"to","type":"address","internalType":"address"},{"name":"tokenId","type":"uint256","internalType":"uint256"}],"outputs":[],"stateMutability":"nonpayable"},{"type":"function","name":"balanceOf","inputs":[{"name":"owner","type":"address","internalType":"address"}],"outputs":[{"name":"","type":"uint256","internalType":"uint256"}],"stateMutability":"view"},{"type":"function","name":"dataNFTAddress","inputs":[],"outputs":[{"name":"","type":"address","internalType":"address"}],"stateMutability":"view"},{"type":"function","name":"getApproved","inputs":[{"name":"tokenId","type":"uint256","internalType":"uint256"}],"outputs":[{"name":"","type":"address","internalType":"address"}],"stateMutability":"view"},{"type":"function","name":"getIPFSURI","inputs":[],"outputs":[{"name":"","type":"string","internalType":"string"}],"stateMutability":"view"},{"type":"function","name":"getRoleAdmin","inputs":[{"name":"role","type":"bytes32","internalType":"bytes32"}],"outputs":[{"name":"","type":"bytes32","internalType":"bytes32"}],"stateMutability":"view"},{"type":"function","name":"grantAccess","inputs":[{"name":"user","type":"address","internalType":"address"}],"outputs":[],"stateMutability":"nonpayable"},{"type":"function","name":"grantRole","inputs":[{"name":"role","type":"bytes32","internalType":"bytes32"},{"name":"account","type":"address","internalType":"address"}],"outputs":[],"stateMutability":"nonpayable"},{"type":"function","name":"hasRole","inputs":[{"name":"role","type":"bytes32","internalType":"bytes32"},{"name":"account","type":"address","internalType":"address"}],"outputs":[{"name":"","type":"bool","internalType":"bool"}],"stateMutability":"view"},{"type":"function","name":"isApprovedForAll","inputs":[{"name":"owner","type":"address","internalType":"address"},{"name":"operator","type":"address","internalType":"address"}],"outputs":[{"name":"","type":"bool","internalType":"bool"}],"stateMutability":"view"},{"type":"function","name":"name","inputs":[],"outputs":[{"name":"","type":"string","internalType":"string"}],"stateMutability":"view"},{"type":"function","name":"ownerOf","inputs":[{"name":"tokenId","type":"uint256","internalType":"uint256"}],"outputs":[{"name":"","type":"address","internalType":"address"}],"stateMutability":"view"},{"type":"function","name":"payDataNFT","inputs":[{"name":"amount","type":"uint256","internalType":"uint256"}],"outputs":[],"stateMutability":"nonpayable"},{"type":"function","name":"payForModelUsage","inputs":[],"outputs":[],"stateMutability":"payable"},{"type":"function","name":"price","inputs":[],"outputs":[{"name":"","type":"uint256","internalType":"uint256"}],"stateMutability":"view"},{"type":"function","name":"renounceRole","inputs":[{"name":"role","type":"bytes32","internalType":"bytes32"},{"name":"callerConfirmation","type":"address","internalType":"address"}],"outputs":[],"stateMutability":"nonpayable"},{"type":"function","name":"revokeRole","inputs":[{"name":"role","type":"bytes32","internalType":"bytes32"},{"name":"account","type":"address","internalType":"address"}],"outputs":[],"stateMutability":"nonpayable"},{"type":"function","name":"safeDataMint","inputs":[{"name":"to","type":"address","internalType":"address"},{"name":"tokenId","type":"uint256","internalType":"uint256"}],"outputs":[],"stateMutability":"nonpayable"},{"type":"function","name":"safeTransferFrom","inputs":[{"name":"from","type":"address","internalType":"address"},{"name":"to","type":"address","internalType":"address"},{"name":"tokenId","type":"uint256","internalType":"uint256"}],"outputs":[],"stateMutability":"nonpayable"},{"type":"function","name":"safeTransferFrom","inputs":[{"name":"from","type":"address","internalType":"address"},{"name":"to","type":"address","internalType":"address"},{"name":"tokenId","type":"uint256","internalType":"uint256"},{"name":"data","type":"bytes","internalType":"bytes"}],"outputs":[],"stateMutability":"nonpayable"},{"type":"function","name":"setApprovalForAll","inputs":[{"name":"operator","type":"address","internalType":"address"},{"name":"approved","type":"bool","internalType":"bool"}],"outputs":[],"stateMutability":"nonpayable"},{"type":"function","name":"setIPFSURI","inputs":[{"name":"_ipfsURI","type":"string","internalType":"string"}],"outputs":[],"stateMutability":"nonpayable"},{"type":"function","name":"supportsInterface","inputs":[{"name":"interfaceId","type":"bytes4","internalType":"bytes4"}],"outputs":[{"name":"","type":"bool","internalType":"bool"}],"stateMutability":"view"},{"type":"function","name":"symbol","inputs":[],"outputs":[{"name":"","type":"string","internalType":"string"}],"stateMutability":"view"},{"type":"function","name":"tokenURI","inputs":[{"name":"tokenId","type":"uint256","internalType":"uint256"}],"outputs":[{"name":"","type":"string","internalType":"string"}],"stateMutability":"view"},{"type":"function","name":"transferFrom","inputs":[{"name":"from","type":"address","internalType":"address"},{"name":"to","type":"address","internalType":"address"},{"name":"tokenId","type":"uint256","internalType":"uint256"}],"outputs":[],"stateMutability":"nonpayable"},{"type":"function","name":"withdrawFunds","inputs":[],"outputs":[],"stateMutability":"nonpayable"},{"type":"event","name":"AccessGranted","inputs":[{"name":"user","type":"address","indexed":true,"internalType":"address"}],"anonymous":false},{"type":"event","name":"Approval","inputs":[{"name":"owner","type":"address","indexed":true,"internalType":"address"},{"name":"approved","type":"address","indexed":true,"internalType":"address"},{"name":"tokenId","type":"uint256","indexed":true,"internalType":"uint256"}],"anonymous":false},{"type":"event","name":"ApprovalForAll","inputs":[{"name":"owner","type":"address","indexed":true,"internalType":"address"},{"name":"operator","type":"address","indexed":true,"internalType":"address"},{"name":"approved","type":"bool","indexed":false,"internalType":"bool"}],"anonymous":false},{"type":"event","name":"DataUsagePaid","inputs":[{"name":"payer","type":"address","indexed":true,"internalType":"address"},{"name":"amount","type":"uint256","indexed":false,"internalType":"uint256"}],"anonymous":false},{"type":"event","name":"IPFSURISet","inputs":[{"name":"ipfsURI","type":"string","indexed":true,"internalType":"string"}],"anonymous":false},{"type":"event","name":"RoleAdminChanged","inputs":[{"name":"role","type":"bytes32","indexed":true,"internalType":"bytes32"},{"name":"previousAdminRole","type":"bytes32","indexed":true,"internalType":"bytes32"},{"name":"newAdminRole","type":"bytes32","indexed":true,"internalType":"bytes32"}],"anonymous":false},{"type":"event","name":"RoleGranted","inputs":[{"name":"role","type":"bytes32","indexed":true,"internalType":"bytes32"},{"name":"account","type":"address","indexed":true,"internalType":"address"},{"name":"sender","type":"address","indexed":true,"internalType":"address"}],"anonymous":false},{"type":"event","name":"RoleRevoked","inputs":[{"name":"role","type":"bytes32","indexed":true,"internalType":"bytes32"},{"name":"account","type":"address","indexed":true,"internalType":"address"},{"name":"sender","type":"address","indexed":true,"internalType":"address"}],"anonymous":false},{"type":"event","name":"Transfer","inputs":[{"name":"from","type":"address","indexed":true,"internalType":"address"},{"name":"to","type":"address","indexed":true,"internalType":"address"},{"name":"tokenId","type":"uint256","indexed":true,"internalType":"uint256"}],"anonymous":false},{"type":"event","name":"Withdraw","inputs":[{"name":"recipient","type":"address","indexed":true,"internalType":"address"},{"name":"amount","type":"uint256","indexed":false,"internalType":"uint256"}],"anonymous":false},{"type":"error","name":"AccessControlBadConfirmation","inputs":[]},{"type":"error","name":"AccessControlUnauthorizedAccount","inputs":[{"name":"account","type":"address","internalType":"address"},{"name":"neededRole","type":"bytes32","internalType":"bytes32"}]},{"type":"error","name":"ERC721IncorrectOwner","inputs":[{"name":"sender","type":"address","internalType":"address"},{"name":"tokenId","type":"uint256","internalType":"uint256"},{"name":"owner","type":"address","internalType":"address"}]},{"type":"error","name":"ERC721InsufficientApproval","inputs":[{"name":"operator","type":"address","internalType":"address"},{"name":"tokenId","type":"uint256","internalType":"uint256"}]},{"type":"error","name":"ERC721InvalidApprover","inputs":[{"name":"approver","type":"address","internalType":"address"}]},{"type":"error","name":"ERC721InvalidOperator","inputs":[{"name":"operator","type":"address","internalType":"address"}]},{"type":"error","name":"ERC721InvalidOwner","inputs":[{"name":"owner","type":"address","internalType":"address"}]},{"type":"error","name":"ERC721InvalidReceiver","inputs":[{"name":"receiver","type":"address","internalType":"address"}]},{"type":"error","name":"ERC721InvalidSender","inputs":[{"name":"sender","type":"address","internalType":"address"}]},{"type":"error","name":"ERC721NonexistentToken","inputs":[{"name":"tokenId","type":"uint256","internalType":"uint256"}]}],"bytecode":{"object":"0x608060405234801561001057600080fd5b5060405161202c38038061202c83398101604081905261002f91610235565b8484600061003d8382610380565b50600161004a8282610380565b50506040516e26a7a222a62fa222ab22a627a822a960891b60208201526100919150602f0160405160208183030381529060405280519060200120336100cc60201b60201c565b50600761009e8482610380565b50600880546001600160a01b0319166001600160a01b0393909316929092179091556009555061043e915050565b60008281526006602090815260408083206001600160a01b038516845290915281205460ff166101725760008381526006602090815260408083206001600160a01b03861684529091529020805460ff1916600117905561012a3390565b6001600160a01b0316826001600160a01b0316847f2f8788117e7eff1d82e926ec794901d17c78024a50270940304540a733656f0d60405160405180910390a4506001610176565b5060005b92915050565b634e487b7160e01b600052604160045260246000fd5b600082601f8301126101a357600080fd5b81516001600160401b038111156101bc576101bc61017c565b604051601f8201601f19908116603f011681016001600160401b03811182821017156101ea576101ea61017c565b60405281815283820160200185101561020257600080fd5b60005b8281101561022157602081860181015183830182015201610205565b506000918101602001919091529392505050565b600080600080600060a0868803121561024d57600080fd5b85516001600160401b0381111561026357600080fd5b61026f88828901610192565b602088015190965090506001600160401b0381111561028d57600080fd5b61029988828901610192565b604088015190955090506001600160401b038111156102b757600080fd5b6102c388828901610192565b606088015190945090506001600160a01b03811681146102e257600080fd5b60809690960151949793965091949392915050565b600181811c9082168061030b57607f821691505b60208210810361032b57634e487b7160e01b600052602260045260246000fd5b50919050565b601f82111561037b57806000526020600020601f840160051c810160208510156103585750805b601f840160051c820191505b818110156103785760008155600101610364565b50505b505050565b81516001600160401b038111156103995761039961017c565b6103ad816103a784546102f7565b84610331565b6020601f8211600181146103e157600083156103c95750848201515b600019600385901b1c1916600184901b178455610378565b600084815260208120601f198516915b8281101561041157878501518255602094850194600190920191016103f1565b508482101561042f5786840151600019600387901b60f8161c191681555b50505050600190811b01905550565b611bdf8061044d6000396000f3fe6080604052600436106101d15760003560e01c80636352211e116100f75780639c896d2311610095578063b88d4fde11610064578063b88d4fde14610508578063c87b56dd14610528578063d547741f14610548578063e985e9c51461056857600080fd5b80639c896d23146104a8578063a035b1fe146104bd578063a217fddf146104d3578063a22cb465146104e857600080fd5b806370a08231116100d157806370a0823114610433578063857fb5b21461045357806391d148541461047357806395d89b411461049357600080fd5b80636352211e146103de57806368581381146103fe5780636aeea1691461041357600080fd5b80632389b2801161016f5780632f2ff15d1161013e5780632f2ff15d1461037657806336568abe1461039657806342842e0e146103b6578063547b50c2146103d657600080fd5b80632389b280146102e357806323b872dd1461030357806324600fc314610323578063248a9ca31461033857600080fd5b806308865d19116101ab57806308865d191461026c578063095ea7b3146102815780630ae5e739146102a3578063172bede0146102c357600080fd5b806301ffc9a7146101dd57806306fdde0314610212578063081812fc1461023457600080fd5b366101d857005b600080fd5b3480156101e957600080fd5b506101fd6101f83660046116a6565b610588565b60405190151581526020015b60405180910390f35b34801561021e57600080fd5b50610227610599565b6040516102099190611713565b34801561024057600080fd5b5061025461024f366004611726565b61062b565b6040516001600160a01b039091168152602001610209565b34801561027857600080fd5b50610227610654565b34801561028d57600080fd5b506102a161029c36600461175b565b610663565b005b3480156102af57600080fd5b506102a16102be366004611785565b610672565b3480156102cf57600080fd5b506102a16102de366004611726565b610708565b3480156102ef57600080fd5b506102a16102fe366004611830565b610849565b34801561030f57600080fd5b506102a161031e366004611879565b6108d5565b34801561032f57600080fd5b506102a1610960565b34801561034457600080fd5b50610368610353366004611726565b60009081526006602052604090206001015490565b604051908152602001610209565b34801561038257600080fd5b506102a16103913660046118b6565b610aa8565b3480156103a257600080fd5b506102a16103b13660046118b6565b610acd565b3480156103c257600080fd5b506102a16103d1366004611879565b610b05565b6102a1610b20565b3480156103ea57600080fd5b506102546103f9366004611726565b610bea565b34801561040a57600080fd5b50610368610bf5565b34801561041f57600080fd5b50600854610254906001600160a01b031681565b34801561043f57600080fd5b5061036861044e366004611785565b610c2d565b34801561045f57600080fd5b506102a161046e36600461175b565b610c75565b34801561047f57600080fd5b506101fd61048e3660046118b6565b610cbc565b34801561049f57600080fd5b50610227610ce7565b3480156104b457600080fd5b50610368610cf6565b3480156104c957600080fd5b5061036860095481565b3480156104df57600080fd5b50610368600081565b3480156104f457600080fd5b506102a16105033660046118e2565b610d12565b34801561051457600080fd5b506102a161052336600461191e565b610d1d565b34801561053457600080fd5b50610227610543366004611726565b610d34565b34801561055457600080fd5b506102a16105633660046118b6565b610da9565b34801561057457600080fd5b506101fd61058336600461199a565b610dce565b600061059382610dfc565b92915050565b6060600080546105a8906119c4565b80601f01602080910402602001604051908101604052809291908181526020018280546105d4906119c4565b80156106215780601f106105f657610100808354040283529160200191610621565b820191906000526020600020905b81548152906001019060200180831161060457829003601f168201915b5050505050905090565b600061063682610e21565b506000828152600460205260409020546001600160a01b0316610593565b6060600780546105a8906119c4565b61066e828233610e5a565b5050565b60095461067e82610c2d565b10156106d15760405162461bcd60e51b815260206004820152601c60248201527f5573657220646f6573206e6f74206f776e20616e7920746f6b656e730000000060448201526064015b60405180910390fd5b6040516001600160a01b038216907fdeb5c31899474fe8c086c95ff9344480d19365676a6a1d22d37bb8e3e7c0ef1890600090a250565b6040516e26a7a222a62fa222ab22a627a822a960891b6020820152602f016040516020818303038152906040528051906020012061074581610e67565b600082116107955760405162461bcd60e51b815260206004820181905260248201527f416d6f756e74206d7573742062652067726561746572207468616e207a65726f60448201526064016106c8565b814710156107dc5760405162461bcd60e51b8152602060048201526014602482015273496e73756666696369656e742042616c616e636560601b60448201526064016106c8565b600860009054906101000a90046001600160a01b03166001600160a01b0316638dda8409836040518263ffffffff1660e01b81526004016000604051808303818588803b15801561082c57600080fd5b505af1158015610840573d6000803e3d6000fd5b50505050505050565b6040516e26a7a222a62fa222ab22a627a822a960891b6020820152602f016040516020818303038152906040528051906020012061088681610e67565b60076108928382611a45565b50816040516108a19190611b04565b604051908190038120907f1023f4f34de175fa6398682c249082d9dbd499b86a1aa83eea6b46f2b74b969f90600090a25050565b6001600160a01b0382166108ff57604051633250574960e11b8152600060048201526024016106c8565b600061090c838333610e74565b9050836001600160a01b0316816001600160a01b03161461095a576040516364283d7b60e01b81526001600160a01b03808616600483015260248201849052821660448201526064016106c8565b50505050565b6040516e26a7a222a62fa222ab22a627a822a960891b6020820152602f016040516020818303038152906040528051906020012061099d81610e67565b47806109e25760405162461bcd60e51b81526020600482015260146024820152734e6f2066756e647320746f20776974686472617760601b60448201526064016106c8565b604051600090339083908381818185875af1925050503d8060008114610a24576040519150601f19603f3d011682016040523d82523d6000602084013e610a29565b606091505b5050905080610a6e5760405162461bcd60e51b815260206004820152601160248201527015da5d1a191c985dd85b0819985a5b1959607a1b60448201526064016106c8565b60405182815233907f884edad9ce6fa2440d8a54cc123490eb96d2768479d49ff9c7366125a94243649060200160405180910390a2505050565b600082815260066020526040902060010154610ac381610e67565b61095a8383610f6d565b6001600160a01b0381163314610af65760405163334bd91960e11b815260040160405180910390fd5b610b008282611001565b505050565b610b0083838360405180602001604052806000815250610d1d565b6040516721a7a729aaa6a2a960c11b602082015260280160405160208183030381529060405280519060200120610b5681610e67565b600954341015610bb25760405162461bcd60e51b815260206004820152602160248201527f5061796d656e74206d7573742062652067726561746572207468616e207a65726044820152606f60f81b60648201526084016106c8565b60405134815233907f40c307e9ee87b4de7fdad3e4ac94081e74ca6248e6b08ea286ff2c939c08d9cd9060200160405180910390a250565b600061059382610e21565b6040516e26a7a222a62fa222ab22a627a822a960891b6020820152602f015b6040516020818303038152906040528051906020012081565b60006001600160a01b038216610c59576040516322718ad960e21b8152600060048201526024016106c8565b506001600160a01b031660009081526003602052604090205490565b6040516e26a7a222a62fa222ab22a627a822a960891b6020820152602f0160405160208183030381529060405280519060200120610cb281610e67565b610b00838361106e565b60009182526006602090815260408084206001600160a01b0393909316845291905290205460ff1690565b6060600180546105a8906119c4565b6040516721a7a729aaa6a2a960c11b6020820152602801610c14565b61066e338383611088565b610d288484846108d5565b61095a84848484611127565b6060610d3f82610e21565b506000610d5760408051602081019091526000815290565b90506000815111610d775760405180602001604052806000815250610da2565b80610d8184611250565b604051602001610d92929190611b20565b6040516020818303038152906040525b9392505050565b600082815260066020526040902060010154610dc481610e67565b61095a8383611001565b6001600160a01b03918216600090815260056020908152604080832093909416825291909152205460ff1690565b60006001600160e01b03198216637965db0b60e01b14806105935750610593826112e3565b6000818152600260205260408120546001600160a01b03168061059357604051637e27328960e01b8152600481018490526024016106c8565b610b008383836001611333565b610e718133611439565b50565b6000828152600260205260408120546001600160a01b0390811690831615610ea157610ea1818486611472565b6001600160a01b03811615610edf57610ebe600085600080611333565b6001600160a01b038116600090815260036020526040902080546000190190555b6001600160a01b03851615610f0e576001600160a01b0385166000908152600360205260409020805460010190555b60008481526002602052604080822080546001600160a01b0319166001600160a01b0389811691821790925591518793918516917fddf252ad1be2c89b69c2b068fc378daa952ba7f163c4a11628f55a4df523b3ef91a4949350505050565b6000610f798383610cbc565b610ff95760008381526006602090815260408083206001600160a01b03861684529091529020805460ff19166001179055610fb13390565b6001600160a01b0316826001600160a01b0316847f2f8788117e7eff1d82e926ec794901d17c78024a50270940304540a733656f0d60405160405180910390a4506001610593565b506000610593565b600061100d8383610cbc565b15610ff95760008381526006602090815260408083206001600160a01b0386168085529252808320805460ff1916905551339286917ff6391f5c32d9c69d2a47ea670b442974b53935d1edc7fd64eb21e047a839171b9190a4506001610593565b61066e8282604051806020016040528060008152506114d6565b6001600160a01b0382166110ba57604051630b61174360e31b81526001600160a01b03831660048201526024016106c8565b6001600160a01b03838116600081815260056020908152604080832094871680845294825291829020805460ff191686151590811790915591519182527f17307eab39ab6107e8899845ad3d59bd9653f200f220920489ca2b5937696c31910160405180910390a3505050565b6001600160a01b0383163b1561095a57604051630a85bd0160e11b81526001600160a01b0384169063150b7a0290611169903390889087908790600401611b4f565b6020604051808303816000875af19250505080156111a4575060408051601f3d908101601f191682019092526111a191810190611b8c565b60015b61120d573d8080156111d2576040519150601f19603f3d011682016040523d82523d6000602084013e6111d7565b606091505b50805160000361120557604051633250574960e11b81526001600160a01b03851660048201526024016106c8565b805181602001fd5b6001600160e01b03198116630a85bd0160e11b1461124957604051633250574960e11b81526001600160a01b03851660048201526024016106c8565b5050505050565b6060600061125d836114ed565b600101905060008167ffffffffffffffff81111561127d5761127d6117a0565b6040519080825280601f01601f1916602001820160405280156112a7576020820181803683370190505b5090508181016020015b600019016f181899199a1a9b1b9c1cb0b131b232b360811b600a86061a8153600a85049450846112b157509392505050565b60006001600160e01b031982166380ac58cd60e01b148061131457506001600160e01b03198216635b5e139f60e01b145b8061059357506301ffc9a760e01b6001600160e01b0319831614610593565b808061134757506001600160a01b03821615155b1561140957600061135784610e21565b90506001600160a01b038316158015906113835750826001600160a01b0316816001600160a01b031614155b801561139657506113948184610dce565b155b156113bf5760405163a9fbf51f60e01b81526001600160a01b03841660048201526024016106c8565b81156114075783856001600160a01b0316826001600160a01b03167f8c5be1e5ebec7d5bd14f71427d1e84f3dd0314c0f7b2291e5b200ac8c7c3b92560405160405180910390a45b505b5050600090815260046020526040902080546001600160a01b0319166001600160a01b0392909216919091179055565b6114438282610cbc565b61066e5760405163e2517d3f60e01b81526001600160a01b0382166004820152602481018390526044016106c8565b61147d8383836115c5565b610b00576001600160a01b0383166114ab57604051637e27328960e01b8152600481018290526024016106c8565b60405163177e802f60e01b81526001600160a01b0383166004820152602481018290526044016106c8565b6114e0838361162b565b610b006000848484611127565b60008072184f03e93ff9f4daa797ed6e38ed64bf6a1f0160401b831061152c5772184f03e93ff9f4daa797ed6e38ed64bf6a1f0160401b830492506040015b6d04ee2d6d415b85acef81000000008310611558576d04ee2d6d415b85acef8100000000830492506020015b662386f26fc10000831061157657662386f26fc10000830492506010015b6305f5e100831061158e576305f5e100830492506008015b61271083106115a257612710830492506004015b606483106115b4576064830492506002015b600a83106105935760010192915050565b60006001600160a01b038316158015906116235750826001600160a01b0316846001600160a01b031614806115ff57506115ff8484610dce565b8061162357506000828152600460205260409020546001600160a01b038481169116145b949350505050565b6001600160a01b03821661165557604051633250574960e11b8152600060048201526024016106c8565b600061166383836000610e74565b90506001600160a01b03811615610b00576040516339e3563760e11b8152600060048201526024016106c8565b6001600160e01b031981168114610e7157600080fd5b6000602082840312156116b857600080fd5b8135610da281611690565b60005b838110156116de5781810151838201526020016116c6565b50506000910152565b600081518084526116ff8160208601602086016116c3565b601f01601f19169290920160200192915050565b602081526000610da260208301846116e7565b60006020828403121561173857600080fd5b5035919050565b80356001600160a01b038116811461175657600080fd5b919050565b6000806040838503121561176e57600080fd5b6117778361173f565b946020939093013593505050565b60006020828403121561179757600080fd5b610da28261173f565b634e487b7160e01b600052604160045260246000fd5b60008067ffffffffffffffff8411156117d1576117d16117a0565b50604051601f19601f85018116603f0116810181811067ffffffffffffffff82111715611800576118006117a0565b60405283815290508082840185101561181857600080fd5b83836020830137600060208583010152509392505050565b60006020828403121561184257600080fd5b813567ffffffffffffffff81111561185957600080fd5b8201601f8101841361186a57600080fd5b611623848235602084016117b6565b60008060006060848603121561188e57600080fd5b6118978461173f565b92506118a56020850161173f565b929592945050506040919091013590565b600080604083850312156118c957600080fd5b823591506118d96020840161173f565b90509250929050565b600080604083850312156118f557600080fd5b6118fe8361173f565b91506020830135801515811461191357600080fd5b809150509250929050565b6000806000806080858703121561193457600080fd5b61193d8561173f565b935061194b6020860161173f565b925060408501359150606085013567ffffffffffffffff81111561196e57600080fd5b8501601f8101871361197f57600080fd5b61198e878235602084016117b6565b91505092959194509250565b600080604083850312156119ad57600080fd5b6119b68361173f565b91506118d96020840161173f565b600181811c908216806119d857607f821691505b6020821081036119f857634e487b7160e01b600052602260045260246000fd5b50919050565b601f821115610b0057806000526020600020601f840160051c81016020851015611a255750805b601f840160051c820191505b818110156112495760008155600101611a31565b815167ffffffffffffffff811115611a5f57611a5f6117a0565b611a7381611a6d84546119c4565b846119fe565b6020601f821160018114611aa75760008315611a8f5750848201515b600019600385901b1c1916600184901b178455611249565b600084815260208120601f198516915b82811015611ad75787850151825560209485019460019092019101611ab7565b5084821015611af55786840151600019600387901b60f8161c191681555b50505050600190811b01905550565b60008251611b168184602087016116c3565b9190910192915050565b60008351611b328184602088016116c3565b835190830190611b468183602088016116c3565b01949350505050565b6001600160a01b0385811682528416602082015260408101839052608060608201819052600090611b82908301846116e7565b9695505050505050565b600060208284031215611b9e57600080fd5b8151610da28161169056fea2646970667358221220142fa0f5af5295be65dfd23b97765309b2d98119e2d92c9498a5b569e176c77c64736f6c634300081a0033","linkReferences":{}},"methodIdentifiers":{"CONSUMER()":"9c896d23","DEFAULT_ADMIN_ROLE()":"a217fddf","MODEL_DEVELOPER()":"68581381","approve(address,uint256)":"095ea7b3","balanceOf(address)":"70a08231","dataNFTAddress()":"6aeea169","getApproved(uint256)":"081812fc","getIPFSURI()":"08865d19","getRoleAdmin(bytes32)":"248a9ca3","grantAccess(address)":"0ae5e739","grantRole(bytes32,address)":"2f2ff15d","hasRole(bytes32,address)":"91d14854","isApprovedForAll(address,address)":"e985e9c5","name()":"06fdde03","ownerOf(uint256)":"6352211e","payDataNFT(uint256)":"172bede0","payForModelUsage()":"547b50c2","price()":"a035b1fe","renounceRole(bytes32,address)":"36568abe","revokeRole(bytes32,address)":"d547741f","safeDataMint(address,uint256)":"857fb5b2","safeTransferFrom(address,address,uint256)":"42842e0e","safeTransferFrom(address,address,uint256,bytes)":"b88d4fde","setApprovalForAll(address,bool)":"a22cb465","setIPFSURI(string)":"2389b280","supportsInterface(bytes4)":"01ffc9a7","symbol()":"95d89b41","tokenURI(uint256)":"c87b56dd","transferFrom(address,address,uint256)":"23b872dd","withdrawFunds()":"24600fc3"},"id":23}