{"abi":[{"type":"constructor","inputs":[{"name":"assetProviderAddress","type":"address","internalType":"address"},{"name":"initialSupply","type":"uint256","internalType":"uint256"},{"name":"initialOwner","type":"address","internalType":"address"}],"stateMutability":"nonpayable"},{"type":"receive","stateMutability":"payable"},{"type":"function","name":"ASSET_PROVIDER","inputs":[],"outputs":[{"name":"","type":"bytes32","internalType":"bytes32"}],"stateMutability":"view"},{"type":"function","name":"DEFAULT_ADMIN_ROLE","inputs":[],"outputs":[{"name":"","type":"bytes32","internalType":"bytes32"}],"stateMutability":"view"},{"type":"function","name":"allowance","inputs":[{"name":"owner","type":"address","internalType":"address"},{"name":"spender","type":"address","internalType":"address"}],"outputs":[{"name":"","type":"uint256","internalType":"uint256"}],"stateMutability":"view"},{"type":"function","name":"approve","inputs":[{"name":"spender","type":"address","internalType":"address"},{"name":"value","type":"uint256","internalType":"uint256"}],"outputs":[{"name":"","type":"bool","internalType":"bool"}],"stateMutability":"nonpayable"},{"type":"function","name":"assetNFTHolder","inputs":[],"outputs":[{"name":"","type":"address","internalType":"address"}],"stateMutability":"view"},{"type":"function","name":"balanceOf","inputs":[{"name":"account","type":"address","internalType":"address"}],"outputs":[{"name":"","type":"uint256","internalType":"uint256"}],"stateMutability":"view"},{"type":"function","name":"buyTokens","inputs":[{"name":"paymentToken","type":"address","internalType":"address"},{"name":"paymentAmount","type":"uint256","internalType":"uint256"}],"outputs":[],"stateMutability":"payable"},{"type":"function","name":"decimals","inputs":[],"outputs":[{"name":"","type":"uint8","internalType":"uint8"}],"stateMutability":"view"},{"type":"function","name":"getRoleAdmin","inputs":[{"name":"role","type":"bytes32","internalType":"bytes32"}],"outputs":[{"name":"","type":"bytes32","internalType":"bytes32"}],"stateMutability":"view"},{"type":"function","name":"grantAccessToDataNFT","inputs":[{"name":"dataNFTAddress","type":"address","internalType":"address payable"},{"name":"user","type":"address","internalType":"address"}],"outputs":[],"stateMutability":"nonpayable"},{"type":"function","name":"grantAccessToModelNFT","inputs":[{"name":"modelNFTAddress","type":"address","internalType":"address payable"},{"name":"user","type":"address","internalType":"address"}],"outputs":[],"stateMutability":"nonpayable"},{"type":"function","name":"grantRole","inputs":[{"name":"role","type":"bytes32","internalType":"bytes32"},{"name":"account","type":"address","internalType":"address"}],"outputs":[],"stateMutability":"nonpayable"},{"type":"function","name":"hasRole","inputs":[{"name":"role","type":"bytes32","internalType":"bytes32"},{"name":"account","type":"address","internalType":"address"}],"outputs":[{"name":"","type":"bool","internalType":"bool"}],"stateMutability":"view"},{"type":"function","name":"mint","inputs":[{"name":"to","type":"address","internalType":"address"},{"name":"amount","type":"uint256","internalType":"uint256"}],"outputs":[],"stateMutability":"nonpayable"},{"type":"function","name":"name","inputs":[],"outputs":[{"name":"","type":"string","internalType":"string"}],"stateMutability":"view"},{"type":"function","name":"renounceRole","inputs":[{"name":"role","type":"bytes32","internalType":"bytes32"},{"name":"callerConfirmation","type":"address","internalType":"address"}],"outputs":[],"stateMutability":"nonpayable"},{"type":"function","name":"revokeRole","inputs":[{"name":"role","type":"bytes32","internalType":"bytes32"},{"name":"account","type":"address","internalType":"address"}],"outputs":[],"stateMutability":"nonpayable"},{"type":"function","name":"setTokenPrice","inputs":[{"name":"token","type":"address","internalType":"address"},{"name":"price","type":"uint256","internalType":"uint256"}],"outputs":[],"stateMutability":"nonpayable"},{"type":"function","name":"supportsInterface","inputs":[{"name":"interfaceId","type":"bytes4","internalType":"bytes4"}],"outputs":[{"name":"","type":"bool","internalType":"bool"}],"stateMutability":"view"},{"type":"function","name":"symbol","inputs":[],"outputs":[{"name":"","type":"string","internalType":"string"}],"stateMutability":"view"},{"type":"function","name":"tokenPrices","inputs":[{"name":"","type":"address","internalType":"address"}],"outputs":[{"name":"","type":"uint256","internalType":"uint256"}],"stateMutability":"view"},{"type":"function","name":"totalSupply","inputs":[],"outputs":[{"name":"","type":"uint256","internalType":"uint256"}],"stateMutability":"view"},{"type":"function","name":"transfer","inputs":[{"name":"to","type":"address","internalType":"address"},{"name":"value","type":"uint256","internalType":"uint256"}],"outputs":[{"name":"","type":"bool","internalType":"bool"}],"stateMutability":"nonpayable"},{"type":"function","name":"transferFrom","inputs":[{"name":"from","type":"address","internalType":"address"},{"name":"to","type":"address","internalType":"address"},{"name":"value","type":"uint256","internalType":"uint256"}],"outputs":[{"name":"","type":"bool","internalType":"bool"}],"stateMutability":"nonpayable"},{"type":"function","name":"withdrawEther","inputs":[{"name":"amount","type":"uint256","internalType":"uint256"}],"outputs":[],"stateMutability":"payable"},{"type":"event","name":"AccessGranted","inputs":[{"name":"user","type":"address","indexed":true,"internalType":"address"}],"anonymous":false},{"type":"event","name":"Approval","inputs":[{"name":"owner","type":"address","indexed":true,"internalType":"address"},{"name":"spender","type":"address","indexed":true,"internalType":"address"},{"name":"value","type":"uint256","indexed":false,"internalType":"uint256"}],"anonymous":false},{"type":"event","name":"RoleAdminChanged","inputs":[{"name":"role","type":"bytes32","indexed":true,"internalType":"bytes32"},{"name":"previousAdminRole","type":"bytes32","indexed":true,"internalType":"bytes32"},{"name":"newAdminRole","type":"bytes32","indexed":true,"internalType":"bytes32"}],"anonymous":false},{"type":"event","name":"RoleGranted","inputs":[{"name":"role","type":"bytes32","indexed":true,"internalType":"bytes32"},{"name":"account","type":"address","indexed":true,"internalType":"address"},{"name":"sender","type":"address","indexed":true,"internalType":"address"}],"anonymous":false},{"type":"event","name":"RoleRevoked","inputs":[{"name":"role","type":"bytes32","indexed":true,"internalType":"bytes32"},{"name":"account","type":"address","indexed":true,"internalType":"address"},{"name":"sender","type":"address","indexed":true,"internalType":"address"}],"anonymous":false},{"type":"event","name":"TokensPurchased","inputs":[{"name":"purchaser","type":"address","indexed":true,"internalType":"address"},{"name":"amount","type":"uint256","indexed":false,"internalType":"uint256"},{"name":"paymentToken","type":"address","indexed":false,"internalType":"address"}],"anonymous":false},{"type":"event","name":"Transfer","inputs":[{"name":"from","type":"address","indexed":true,"internalType":"address"},{"name":"to","type":"address","indexed":true,"internalType":"address"},{"name":"value","type":"uint256","indexed":false,"internalType":"uint256"}],"anonymous":false},{"type":"error","name":"AccessControlBadConfirmation","inputs":[]},{"type":"error","name":"AccessControlUnauthorizedAccount","inputs":[{"name":"account","type":"address","internalType":"address"},{"name":"neededRole","type":"bytes32","internalType":"bytes32"}]},{"type":"error","name":"ERC20InsufficientAllowance","inputs":[{"name":"spender","type":"address","internalType":"address"},{"name":"allowance","type":"uint256","internalType":"uint256"},{"name":"needed","type":"uint256","internalType":"uint256"}]},{"type":"error","name":"ERC20InsufficientBalance","inputs":[{"name":"sender","type":"address","internalType":"address"},{"name":"balance","type":"uint256","internalType":"uint256"},{"name":"needed","type":"uint256","internalType":"uint256"}]},{"type":"error","name":"ERC20InvalidApprover","inputs":[{"name":"approver","type":"address","internalType":"address"}]},{"type":"error","name":"ERC20InvalidReceiver","inputs":[{"name":"receiver","type":"address","internalType":"address"}]},{"type":"error","name":"ERC20InvalidSender","inputs":[{"name":"sender","type":"address","internalType":"address"}]},{"type":"error","name":"ERC20InvalidSpender","inputs":[{"name":"spender","type":"address","internalType":"address"}]}],"bytecode":{"object":"0x608060405234801561001057600080fd5b5060405161187938038061187983398101604081905261002f91610352565b6040518060400160405280600f81526020016e29bab13634b1b2b739b2aa37b5b2b760891b8152506040518060400160405280600381526020016214d31560ea1b8152508160039081610082919061042d565b50600461008f828261042d565b50506040516d20a9a9a2aa2fa82927ab24a222a960911b60208201526100d59150602e01604051602081830303815290604052805190602001208461011d60201b60201c565b506100f68160126100e785600a610501565b6100f19190610501565b6101cd565b5050600780546001600160a01b0319166001600160a01b039290921691909117905561052b565b60008281526005602090815260408083206001600160a01b038516845290915281205460ff166101c35760008381526005602090815260408083206001600160a01b03861684529091529020805460ff1916600117905561017b3390565b6001600160a01b0316826001600160a01b0316847f2f8788117e7eff1d82e926ec794901d17c78024a50270940304540a733656f0d60405160405180910390a45060016101c7565b5060005b92915050565b6001600160a01b0382166101fc5760405163ec442f0560e01b8152600060048201526024015b60405180910390fd5b6102086000838361020c565b5050565b6001600160a01b03831661023757806002600082825461022c9190610518565b909155506102a99050565b6001600160a01b0383166000908152602081905260409020548181101561028a5760405163391434e360e21b81526001600160a01b038516600482015260248101829052604481018390526064016101f3565b6001600160a01b03841660009081526020819052604090209082900390555b6001600160a01b0382166102c5576002805482900390556102e4565b6001600160a01b03821660009081526020819052604090208054820190555b816001600160a01b0316836001600160a01b03167fddf252ad1be2c89b69c2b068fc378daa952ba7f163c4a11628f55a4df523b3ef8360405161032991815260200190565b60405180910390a3505050565b80516001600160a01b038116811461034d57600080fd5b919050565b60008060006060848603121561036757600080fd5b61037084610336565b92506020840151915061038560408501610336565b90509250925092565b634e487b7160e01b600052604160045260246000fd5b600181811c908216806103b857607f821691505b6020821081036103d857634e487b7160e01b600052602260045260246000fd5b50919050565b601f82111561042857806000526020600020601f840160051c810160208510156104055750805b601f840160051c820191505b818110156104255760008155600101610411565b50505b505050565b81516001600160401b038111156104465761044661038e565b61045a8161045484546103a4565b846103de565b6020601f82116001811461048e57600083156104765750848201515b600019600385901b1c1916600184901b178455610425565b600084815260208120601f198516915b828110156104be578785015182556020948501946001909201910161049e565b50848210156104dc5786840151600019600387901b60f8161c191681555b50505050600190811b01905550565b634e487b7160e01b600052601160045260246000fd5b80820281158282048414176101c7576101c76104eb565b808201808211156101c7576101c76104eb565b61133f8061053a6000396000f3fe60806040526004361061016a5760003560e01c806340c10f19116100d157806391d148541161008a578063a9059cbb11610064578063a9059cbb14610489578063d547741f146104a9578063dd62ed3e146104c9578063ec03e2411461050f57600080fd5b806391d148541461043f57806395d89b411461045f578063a217fddf1461047457600080fd5b806340c10f1914610363578063431f63c9146103835780635fed8aa8146103a35780636906766f146103a357806369ab800b146103c357806370a082311461040957600080fd5b806323b872dd1161012357806323b872dd146102a4578063248a9ca3146102c45780632f2ff15d146102f4578063313ce5671461031457806336568abe146103305780633bed33ce1461035057600080fd5b806301ffc9a7146101cc57806306fdde03146102015780630752881a14610223578063095ea7b31461023857806318160ddd14610258578063204120bc1461027757600080fd5b366101c75760405162461bcd60e51b815260206004820152602260248201527f446972656374204574686572207061796d656e7473206e6f7420616363657074604482015261195960f21b60648201526084015b60405180910390fd5b600080fd5b3480156101d857600080fd5b506101ec6101e73660046110f7565b610547565b60405190151581526020015b60405180910390f35b34801561020d57600080fd5b5061021661057e565b6040516101f89190611128565b61023661023136600461118b565b610610565b005b34801561024457600080fd5b506101ec61025336600461118b565b6108e1565b34801561026457600080fd5b506002545b6040519081526020016101f8565b34801561028357600080fd5b506102696102923660046111b7565b60066020526000908152604090205481565b3480156102b057600080fd5b506101ec6102bf3660046111d4565b6108f9565b3480156102d057600080fd5b506102696102df366004611215565b60009081526005602052604090206001015490565b34801561030057600080fd5b5061023661030f36600461122e565b61091d565b34801561032057600080fd5b50604051601281526020016101f8565b34801561033c57600080fd5b5061023661034b36600461122e565b610948565b61023661035e366004611215565b610980565b34801561036f57600080fd5b5061023661037e36600461118b565b610a5f565b34801561038f57600080fd5b5061023661039e36600461118b565b610aa5565b3480156103af57600080fd5b506102366103be36600461125e565b610b1b565b3480156103cf57600080fd5b506102696040516d20a9a9a2aa2fa82927ab24a222a960911b6020820152602e016040516020818303038152906040528051906020012081565b34801561041557600080fd5b506102696104243660046111b7565b6001600160a01b031660009081526020819052604090205490565b34801561044b57600080fd5b506101ec61045a36600461122e565b610c2e565b34801561046b57600080fd5b50610216610c59565b34801561048057600080fd5b50610269600081565b34801561049557600080fd5b506101ec6104a436600461118b565b610c68565b3480156104b557600080fd5b506102366104c436600461122e565b610c76565b3480156104d557600080fd5b506102696104e436600461125e565b6001600160a01b03918216600090815260016020908152604080832093909416825291909152205490565b34801561051b57600080fd5b5060075461052f906001600160a01b031681565b6040516001600160a01b0390911681526020016101f8565b60006001600160e01b03198216637965db0b60e01b148061057857506301ffc9a760e01b6001600160e01b03198316145b92915050565b60606003805461058d9061128c565b80601f01602080910402602001604051908101604052809291908181526020018280546105b99061128c565b80156106065780601f106105db57610100808354040283529160200191610606565b820191906000526020600020905b8154815290600101906020018083116105e957829003601f168201915b5050505050905090565b60006001600160a01b038316610694576000341161068d5760405162461bcd60e51b815260206004820152603460248201527f596f75206e65656420746f2073656e6420736f6d6520457468657220746f20626044820152737579207375626c6963656e736520746f6b656e7360601b60648201526084016101be565b50346107cb565b6001600160a01b038316600090815260066020526040902054806107055760405162461bcd60e51b815260206004820152602260248201527f54686973207061796d656e7420746f6b656e206973206e6f7420616363657074604482015261195960f21b60648201526084016101be565b6007546040516323b872dd60e01b81523360048201526001600160a01b03918216602482015260448101859052849350908516906323b872dd906064016020604051808303816000875af1158015610761573d6000803e3d6000fd5b505050506040513d601f19601f8201168201806040525081019061078591906112c6565b6107c95760405162461bcd60e51b8152602060048201526015602482015274151bdad95b881d1c985b9cd9995c8819985a5b1959605a1b60448201526064016101be565b505b6000811161082d5760405162461bcd60e51b815260206004820152602960248201527f496e73756666696369656e74207061796d656e7420616d6f756e7420746f2062604482015268757920746f6b656e7360b81b60648201526084016101be565b306000908152602081905260409020548181101561088d5760405162461bcd60e51b815260206004820181905260248201527f4e6f7420656e6f75676820746f6b656e7320696e20746865207265736572766560448201526064016101be565b610898303384610c9b565b604080518381526001600160a01b038616602082015233917fdeb694333db427a215bd304eb27e4cd3d611bfb117c37646ef7b4fffe5611bcc910160405180910390a250505050565b6000336108ef818585610cfa565b5060019392505050565b600033610907858285610d07565b610912858585610c9b565b506001949350505050565b60008281526005602052604090206001015461093881610d7f565b6109428383610d8c565b50505050565b6001600160a01b03811633146109715760405163334bd91960e11b815260040160405180910390fd5b61097b8282610e20565b505050565b6007546001600160a01b031633146109da5760405162461bcd60e51b815260206004820181905260248201527f43616c6c6572206973206e6f742074686520446174614e465420686f6c64657260448201526064016101be565b80471015610a215760405162461bcd60e51b8152602060048201526014602482015273496e73756666696369656e742062616c616e636560601b60448201526064016101be565b6007546040516001600160a01b039091169082156108fc029083906000818181858888f19350505050158015610a5b573d6000803e3d6000fd5b5050565b6040516d20a9a9a2aa2fa82927ab24a222a960911b6020820152602e0160405160208183030381529060405280519060200120610a9b81610d7f565b61097b8383610e8d565b6007546001600160a01b03163314610aff5760405162461bcd60e51b815260206004820181905260248201527f43616c6c6572206973206e6f742074686520446174614e465420686f6c64657260448201526064016101be565b6001600160a01b03909116600090815260066020526040902055565b816000610b3d836001600160a01b031660009081526020819052604090205490565b11610b9a5760405162461bcd60e51b815260206004820152602760248201527f5573657220646f6573206e6f74206f776e20616e79207375626c6963656e736560448201526620746f6b656e7360c81b60648201526084016101be565b604051630ae5e73960e01b81526001600160a01b038381166004830152821690630ae5e73990602401600060405180830381600087803b158015610bdd57600080fd5b505af1158015610bf1573d6000803e3d6000fd5b50506040516001600160a01b03851692507fdeb5c31899474fe8c086c95ff9344480d19365676a6a1d22d37bb8e3e7c0ef189150600090a2505050565b60009182526005602090815260408084206001600160a01b0393909316845291905290205460ff1690565b60606004805461058d9061128c565b6000336108ef818585610c9b565b600082815260056020526040902060010154610c9181610d7f565b6109428383610e20565b6001600160a01b038316610cc557604051634b637e8f60e11b8152600060048201526024016101be565b6001600160a01b038216610cef5760405163ec442f0560e01b8152600060048201526024016101be565b61097b838383610ebf565b61097b8383836001610fe9565b6001600160a01b0383811660009081526001602090815260408083209386168352929052205460001981146109425781811015610d7057604051637dc7a0d960e11b81526001600160a01b038416600482015260248101829052604481018390526064016101be565b61094284848484036000610fe9565b610d8981336110be565b50565b6000610d988383610c2e565b610e185760008381526005602090815260408083206001600160a01b03861684529091529020805460ff19166001179055610dd03390565b6001600160a01b0316826001600160a01b0316847f2f8788117e7eff1d82e926ec794901d17c78024a50270940304540a733656f0d60405160405180910390a4506001610578565b506000610578565b6000610e2c8383610c2e565b15610e185760008381526005602090815260408083206001600160a01b0386168085529252808320805460ff1916905551339286917ff6391f5c32d9c69d2a47ea670b442974b53935d1edc7fd64eb21e047a839171b9190a4506001610578565b6001600160a01b038216610eb75760405163ec442f0560e01b8152600060048201526024016101be565b610a5b600083835b6001600160a01b038316610eea578060026000828254610edf91906112e8565b90915550610f5c9050565b6001600160a01b03831660009081526020819052604090205481811015610f3d5760405163391434e360e21b81526001600160a01b038516600482015260248101829052604481018390526064016101be565b6001600160a01b03841660009081526020819052604090209082900390555b6001600160a01b038216610f7857600280548290039055610f97565b6001600160a01b03821660009081526020819052604090208054820190555b816001600160a01b0316836001600160a01b03167fddf252ad1be2c89b69c2b068fc378daa952ba7f163c4a11628f55a4df523b3ef83604051610fdc91815260200190565b60405180910390a3505050565b6001600160a01b0384166110135760405163e602df0560e01b8152600060048201526024016101be565b6001600160a01b03831661103d57604051634a1406b160e11b8152600060048201526024016101be565b6001600160a01b038085166000908152600160209081526040808320938716835292905220829055801561094257826001600160a01b0316846001600160a01b03167f8c5be1e5ebec7d5bd14f71427d1e84f3dd0314c0f7b2291e5b200ac8c7c3b925846040516110b091815260200190565b60405180910390a350505050565b6110c88282610c2e565b610a5b5760405163e2517d3f60e01b81526001600160a01b0382166004820152602481018390526044016101be565b60006020828403121561110957600080fd5b81356001600160e01b03198116811461112157600080fd5b9392505050565b602081526000825180602084015260005b818110156111565760208186018101516040868401015201611139565b506000604082850101526040601f19601f83011684010191505092915050565b6001600160a01b0381168114610d8957600080fd5b6000806040838503121561119e57600080fd5b82356111a981611176565b946020939093013593505050565b6000602082840312156111c957600080fd5b813561112181611176565b6000806000606084860312156111e957600080fd5b83356111f481611176565b9250602084013561120481611176565b929592945050506040919091013590565b60006020828403121561122757600080fd5b5035919050565b6000806040838503121561124157600080fd5b82359150602083013561125381611176565b809150509250929050565b6000806040838503121561127157600080fd5b823561127c81611176565b9150602083013561125381611176565b600181811c908216806112a057607f821691505b6020821081036112c057634e487b7160e01b600052602260045260246000fd5b50919050565b6000602082840312156112d857600080fd5b8151801515811461112157600080fd5b8082018082111561057857634e487b7160e01b600052601160045260246000fdfea26469706673582212202fd517ddf0a9c2e1eea9953987cbc68cffa221ce780756e8f1b83d8212735a0764736f6c634300081a0033","linkReferences":{}},"methodIdentifiers":{"ASSET_PROVIDER()":"69ab800b","DEFAULT_ADMIN_ROLE()":"a217fddf","allowance(address,address)":"dd62ed3e","approve(address,uint256)":"095ea7b3","assetNFTHolder()":"ec03e241","balanceOf(address)":"70a08231","buyTokens(address,uint256)":"0752881a","decimals()":"313ce567","getRoleAdmin(bytes32)":"248a9ca3","grantAccessToDataNFT(address,address)":"6906766f","grantAccessToModelNFT(address,address)":"5fed8aa8","grantRole(bytes32,address)":"2f2ff15d","hasRole(bytes32,address)":"91d14854","mint(address,uint256)":"40c10f19","name()":"06fdde03","renounceRole(bytes32,address)":"36568abe","revokeRole(bytes32,address)":"d547741f","setTokenPrice(address,uint256)":"431f63c9","supportsInterface(bytes4)":"01ffc9a7","symbol()":"95d89b41","tokenPrices(address)":"204120bc","totalSupply()":"18160ddd","transfer(address,uint256)":"a9059cbb","transferFrom(address,address,uint256)":"23b872dd","withdrawEther(uint256)":"3bed33ce"},"id":20}