{"abi":[{"type":"function","name":"createConsumer","inputs":[{"name":"sublicenseTokenAddress","type":"address","internalType":"address payable"},{"name":"dataNFTAddress","type":"address","internalType":"address payable"},{"name":"modelNFTAddress","type":"address","internalType":"address payable"},{"name":"feePercentage","type":"uint256","internalType":"uint256"}],"outputs":[{"name":"","type":"address","internalType":"address"}],"stateMutability":"nonpayable"},{"type":"event","name":"ConsumerDeployed","inputs":[{"name":"consumerAddress","type":"address","indexed":true,"internalType":"address"},{"name":"owner","type":"address","indexed":true,"internalType":"address"}],"anonymous":false}],"bytecode":{"object":"0x6080604052348015600f57600080fd5b50610cfe8061001f6000396000f3fe608060405234801561001057600080fd5b506004361061002b5760003560e01c80631fa7947a14610030575b600080fd5b61004361003e366004610121565b61005f565b6040516001600160a01b03909116815260200160405180910390f35b60008085858585604051610072906100f8565b6001600160a01b0394851681529284166020840152921660408201526060810191909152608001604051809103906000f0801580156100b5573d6000803e3d6000fd5b5060405190915033906001600160a01b038316907f0ae21d3baab581b905e64cd922613d618c8ba4cbb657198f69028682d9b2e0dc90600090a395945050505050565b610b5c8061016d83390190565b80356001600160a01b038116811461011c57600080fd5b919050565b6000806000806080858703121561013757600080fd5b61014085610105565b935061014e60208601610105565b925061015c60408601610105565b939692955092936060013592505056fe608060405234801561001057600080fd5b50604051610b5c380380610b5c83398101604081905261002f91610110565b338061005557604051631e4fbdf760e01b81526000600482015260240160405180910390fd5b61005e816100a4565b50600180546001600160a01b03199081166001600160a01b039687161790915560028054821694861694909417909355600380549093169190931617905560045561015b565b600080546001600160a01b038381166001600160a01b0319831681178455604051919092169283917f8be0079c531659141344cd1fd0a4f28419497f9722a3daafe3b4186f6b6457e09190a35050565b80516001600160a01b038116811461010b57600080fd5b919050565b6000806000806080858703121561012657600080fd5b61012f856100f4565b935061013d602086016100f4565b925061014b604086016100f4565b6060959095015193969295505050565b6109f28061016a6000396000f3fe6080604052600436106100ab5760003560e01c80636efc1650116100645780636efc165014610166578063715018a6146101865780638da5cb5b1461019b578063a001ecdd146101b9578063f2fde38b146101dd578063f8a59c6b146101fd57600080fd5b80630752881a146100b757806313a87ee0146100cc57806324600fc3146100ec578063261e044214610101578063547b50c2146101215780635874706a1461012957600080fd5b366100b257005b600080fd5b6100ca6100c53660046108a8565b61021d565b005b3480156100d857600080fd5b506100ca6100e73660046108d2565b6102ce565b3480156100f857600080fd5b506100ca610404565b34801561010d57600080fd5b506100ca61011c3660046108d2565b61050f565b6100ca6105d7565b34801561013557600080fd5b50600254610149906001600160a01b031681565b6040516001600160a01b0390911681526020015b60405180910390f35b34801561017257600080fd5b50600354610149906001600160a01b031681565b34801561019257600080fd5b506100ca6107bd565b3480156101a757600080fd5b506000546001600160a01b0316610149565b3480156101c557600080fd5b506101cf60045481565b60405190815260200161015d565b3480156101e957600080fd5b506100ca6101f83660046108d2565b6107d1565b34801561020957600080fd5b50600154610149906001600160a01b031681565b6001546040516303a9440d60e11b81526001600160a01b0384811660048301526024820184905290911690630752881a9034906044016000604051808303818588803b15801561026c57600080fd5b505af1158015610280573d6000803e3d6000fd5b5050604080518581526001600160a01b03871660208201523394507fdeb694333db427a215bd304eb27e4cd3d611bfb117c37646ef7b4fffe5611bcc93500190505b60405180910390a25050565b6001546040516370a0823160e01b81526001600160a01b03838116600483015260009216906370a0823190602401602060405180830381865afa158015610319573d6000803e3d6000fd5b505050506040513d601f19601f8201168201806040525081019061033d91906108f4565b116103635760405162461bcd60e51b815260040161035a9061090d565b60405180910390fd5b600154600254604051636906766f60e01b81526001600160a01b0391821660048201528382166024820152911690636906766f906044015b600060405180830381600087803b1580156103b557600080fd5b505af11580156103c9573d6000803e3d6000fd5b50506040516001600160a01b03841692507fdeb5c31899474fe8c086c95ff9344480d19365676a6a1d22d37bb8e3e7c0ef189150600090a250565b61040c61080f565b47806104515760405162461bcd60e51b81526020600482015260146024820152734e6f2066756e647320746f20776974686472617760601b604482015260640161035a565b604051600090339083908381818185875af1925050503d8060008114610493576040519150601f19603f3d011682016040523d82523d6000602084013e610498565b606091505b50509050806104dd5760405162461bcd60e51b815260206004820152601160248201527015da5d1a191c985dd85b0819985a5b1959607a1b604482015260640161035a565b60405182815233907f884edad9ce6fa2440d8a54cc123490eb96d2768479d49ff9c7366125a9424364906020016102c2565b6001546040516370a0823160e01b81526001600160a01b03838116600483015260009216906370a0823190602401602060405180830381865afa15801561055a573d6000803e3d6000fd5b505050506040513d601f19601f8201168201806040525081019061057e91906108f4565b1161059b5760405162461bcd60e51b815260040161035a9061090d565b600154600354604051630bfdb15560e31b81526001600160a01b0391821660048201528382166024820152911690635fed8aa89060440161039b565b6000612710600454346105ea919061096a565b6105f49190610987565b9050600061060282346109a9565b6003546040519192506000916001600160a01b039091169083908381818185875af1925050503d8060008114610654576040519150601f19603f3d011682016040523d82523d6000602084013e610659565b606091505b50509050806106aa5760405162461bcd60e51b815260206004820152601a60248201527f5061796d656e7420746f204d6f64656c4e4654206661696c6564000000000000604482015260640161035a565b6002546040516000916001600160a01b03169085908381818185875af1925050503d80600081146106f7576040519150601f19603f3d011682016040523d82523d6000602084013e6106fc565b606091505b505090508061074d5760405162461bcd60e51b815260206004820152601d60248201527f466565207061796d656e7420746f20446174614e4654206661696c6564000000604482015260640161035a565b60405134815233907f40c307e9ee87b4de7fdad3e4ac94081e74ca6248e6b08ea286ff2c939c08d9cd9060200160405180910390a260405184815233907f075a2720282fdf622141dae0b048ef90a21a7e57c134c76912d19d006b3b3f6f9060200160405180910390a250505050565b6107c561080f565b6107cf600061083c565b565b6107d961080f565b6001600160a01b03811661080357604051631e4fbdf760e01b81526000600482015260240161035a565b61080c8161083c565b50565b6000546001600160a01b031633146107cf5760405163118cdaa760e01b815233600482015260240161035a565b600080546001600160a01b038381166001600160a01b0319831681178455604051919092169283917f8be0079c531659141344cd1fd0a4f28419497f9722a3daafe3b4186f6b6457e09190a35050565b80356001600160a01b03811681146108a357600080fd5b919050565b600080604083850312156108bb57600080fd5b6108c48361088c565b946020939093013593505050565b6000602082840312156108e457600080fd5b6108ed8261088c565b9392505050565b60006020828403121561090657600080fd5b5051919050565b60208082526027908201527f5573657220646f6573206e6f74206f776e20616e79207375626c6963656e736560408201526620746f6b656e7360c81b606082015260800190565b634e487b7160e01b600052601160045260246000fd5b808202811582820484141761098157610981610954565b92915050565b6000826109a457634e487b7160e01b600052601260045260246000fd5b500490565b818103818111156109815761098161095456fea26469706673582212204278fd5b3fc2b945e25bf76700ed086bc30c6271bc3cdbee2e8a9505c2a7ff5b64736f6c634300081a0033a2646970667358221220ea5f5c30b47e706f948a7ad9f3556810b7eb1a36ae0106d6855a844e6bc5e47864736f6c634300081a0033","linkReferences":{}},"methodIdentifiers":{"createConsumer(address,address,address,uint256)":"1fa7947a"},"id":19}