{"abi":[{"type":"constructor","inputs":[{"name":"defaultAdmin","type":"address","internalType":"address"}],"stateMutability":"nonpayable"},{"type":"function","name":"ASSET_PROVIDER","inputs":[],"outputs":[{"name":"","type":"bytes32","internalType":"bytes32"}],"stateMutability":"view"},{"type":"function","name":"createDataNFT","inputs":[{"name":"name","type":"string","internalType":"string"},{"name":"symbol","type":"string","internalType":"string"},{"name":"initialSupply","type":"uint256","internalType":"uint256"},{"name":"ipfsURI","type":"string","internalType":"string"},{"name":"tokenPrice","type":"uint256","internalType":"uint256"},{"name":"fee","type":"uint256","internalType":"uint256"}],"outputs":[],"stateMutability":"nonpayable"},{"type":"function","name":"dataNFTs","inputs":[{"name":"","type":"uint256","internalType":"uint256"}],"outputs":[{"name":"","type":"address","internalType":"contract DataNFT"}],"stateMutability":"view"},{"type":"function","name":"getDeployedDataNFTs","inputs":[],"outputs":[{"name":"","type":"address[]","internalType":"contract DataNFT[]"}],"stateMutability":"view"},{"type":"function","name":"getDeployedSublicenseTokens","inputs":[],"outputs":[{"name":"","type":"address[]","internalType":"contract SublicenseToken[]"}],"stateMutability":"view"},{"type":"function","name":"owner","inputs":[],"outputs":[{"name":"","type":"address","internalType":"address"}],"stateMutability":"view"},{"type":"function","name":"renounceOwnership","inputs":[],"outputs":[],"stateMutability":"nonpayable"},{"type":"function","name":"setSublicenseTokenPrice","inputs":[{"name":"sublicenseTokenAddress","type":"address","internalType":"address payable"},{"name":"price","type":"uint256","internalType":"uint256"}],"outputs":[],"stateMutability":"nonpayable"},{"type":"function","name":"sublicenseTokens","inputs":[{"name":"","type":"uint256","internalType":"uint256"}],"outputs":[{"name":"","type":"address","internalType":"contract SublicenseToken"}],"stateMutability":"view"},{"type":"function","name":"transferOwnership","inputs":[{"name":"newOwner","type":"address","internalType":"address"}],"outputs":[],"stateMutability":"nonpayable"},{"type":"event","name":"DataNFTCreated","inputs":[{"name":"dataNFTHolder","type":"address","indexed":false,"internalType":"address"},{"name":"dataNFTAddress","type":"address","indexed":false,"internalType":"address"},{"name":"sublicenseTokenAddress","type":"address","indexed":false,"internalType":"address"}],"anonymous":false},{"type":"event","name":"OwnershipTransferred","inputs":[{"name":"previousOwner","type":"address","indexed":true,"internalType":"address"},{"name":"newOwner","type":"address","indexed":true,"internalType":"address"}],"anonymous":false},{"type":"error","name":"OwnableInvalidOwner","inputs":[{"name":"owner","type":"address","internalType":"address"}]},{"type":"error","name":"OwnableUnauthorizedAccount","inputs":[{"name":"account","type":"address","internalType":"address"}]}],"bytecode":{"object":"0x608060405234801561001057600080fd5b5060405161422738038061422783398101604081905261002f916100be565b806001600160a01b03811661005e57604051631e4fbdf760e01b81526000600482015260240160405180910390fd5b6100678161006e565b50506100ee565b600080546001600160a01b038381166001600160a01b0319831681178455604051919092169283917f8be0079c531659141344cd1fd0a4f28419497f9722a3daafe3b4186f6b6457e09190a35050565b6000602082840312156100d057600080fd5b81516001600160a01b03811681146100e757600080fd5b9392505050565b61412a806100fd6000396000f3fe608060405234801561001057600080fd5b506004361061009e5760003560e01c806379428d1d1161006657806379428d1d1461012d5780638da5cb5b14610158578063953787d314610169578063d30078151461017c578063f2fde38b1461018f57600080fd5b8063098306b9146100a35780631086f05a146100c1578063450a48f4146100d657806369ab800b146100de578063715018a614610125575b600080fd5b6100ab6101a2565b6040516100b8919061070c565b60405180910390f35b6100d46100cf36600461076d565b610204565b005b6100ab61036f565b6101176040516d20a9a9a2aa2fa82927ab24a222a960911b6020820152602e016040516020818303038152906040528051906020012081565b6040519081526020016100b8565b6100d46103cf565b61014061013b366004610799565b6103e3565b6040516001600160a01b0390911681526020016100b8565b6000546001600160a01b0316610140565b6100d4610177366004610857565b61040d565b61014061018a366004610799565b610627565b6100d461019d366004610907565b610637565b606060028054806020026020016040519081016040528092919081815260200182805480156101fa57602002820191906000526020600020905b81546001600160a01b031681526001909101906020018083116101dc575b5050505050905090565b6040516d20a9a9a2aa2fa82927ab24a222a960911b602082015282906001600160a01b038216906391d1485490602e0160408051601f198184030181529082905280516020909101206001600160e01b031960e084901b1682526004820152336024820152604401602060405180830381865afa158015610289573d6000803e3d6000fd5b505050506040513d601f19601f820116820180604052508101906102ad919061092b565b6103105760405162461bcd60e51b815260206004820152602960248201527f4f6e6c792074686520446174614e465420686f6c6465722063616e207365742060448201526874686520707269636560b81b60648201526084015b60405180910390fd5b604051631a98797f60e21b8152600481018390526001600160a01b03821690636a61e5fc90602401600060405180830381600087803b15801561035257600080fd5b505af1158015610366573d6000803e3d6000fd5b50505050505050565b606060018054806020026020016040519081016040528092919081815260200182805480156101fa576020028201919060005260206000209081546001600160a01b031681526001909101906020018083116101dc575050505050905090565b6103d7610675565b6103e160006106a2565b565b600281815481106103f357600080fd5b6000918252602090912001546001600160a01b0316905081565b60008686858585604051610420906106f2565b61042e959493929190610993565b604051809103906000f08015801561044a573d6000803e3d6000fd5b506040516247136560e71b81529091506001600160a01b03821690632389b280906104799087906004016109e1565b600060405180830381600087803b15801561049357600080fd5b505af11580156104a7573d6000803e3d6000fd5b5050505060003386336040516104bc906106ff565b6001600160a01b03938416815260208101929092529091166040820152606001604051809103906000f0801580156104f8573d6000803e3d6000fd5b50604051631a98797f60e21b8152600481018690529091506001600160a01b03821690636a61e5fc90602401600060405180830381600087803b15801561053e57600080fd5b505af1158015610552573d6000803e3d6000fd5b50506001805480820182557fb10e2d527612073b26eecdfd717e6a320cf44b4afac2b0732d9fcbe2b7fa0cf60180546001600160a01b03199081166001600160a01b038881169182179093556002805494850181556000527f405787fa12a823e0f2b7631cc41b3ba8828b3321ca811111fa75cd3aa3bb5ace909301805490911691861691821790556040805133815260208101939093528201527fe42fc1a55bc8c3fb4893cdd9f2a4fcbbd1247f3b4c1927865e71e8f684254ca29250606001905060405180910390a15050505050505050565b600181815481106103f357600080fd5b61063f610675565b6001600160a01b03811661066957604051631e4fbdf760e01b815260006004820152602401610307565b610672816106a2565b50565b6000546001600160a01b031633146103e15760405163118cdaa760e01b8152336004820152602401610307565b600080546001600160a01b038381166001600160a01b0319831681178455604051919092169283917f8be0079c531659141344cd1fd0a4f28419497f9722a3daafe3b4186f6b6457e09190a35050565b611e6d806109f583390190565b6118938061286283390190565b602080825282518282018190526000918401906040840190835b8181101561074d5783516001600160a01b0316835260209384019390920191600101610726565b509095945050505050565b6001600160a01b038116811461067257600080fd5b6000806040838503121561078057600080fd5b823561078b81610758565b946020939093013593505050565b6000602082840312156107ab57600080fd5b5035919050565b634e487b7160e01b600052604160045260246000fd5b600082601f8301126107d957600080fd5b813567ffffffffffffffff8111156107f3576107f36107b2565b604051601f8201601f19908116603f0116810167ffffffffffffffff81118282101715610822576108226107b2565b60405281815283820160200185101561083a57600080fd5b816020850160208301376000918101602001919091529392505050565b60008060008060008060c0878903121561087057600080fd5b863567ffffffffffffffff81111561088757600080fd5b61089389828a016107c8565b965050602087013567ffffffffffffffff8111156108b057600080fd5b6108bc89828a016107c8565b95505060408701359350606087013567ffffffffffffffff8111156108e057600080fd5b6108ec89828a016107c8565b9699959850939660808101359560a090910135945092505050565b60006020828403121561091957600080fd5b813561092481610758565b9392505050565b60006020828403121561093d57600080fd5b8151801515811461092457600080fd5b6000815180845260005b8181101561097357602081850181015186830182015201610957565b506000602082860101526020601f19601f83011685010191505092915050565b60a0815260006109a660a083018861094d565b82810360208401526109b8818861094d565b905082810360408401526109cc818761094d565b60608401959095525050608001529392505050565b602081526000610924602083018461094d56fe608060405234801561001057600080fd5b50604051611e6d380380611e6d83398101604081905261002f91610218565b8484600061003d8382610349565b50600161004a8282610349565b50506040516c2220aa20afa82927ab24a222a960991b602082015261008f9150602d0160405160208183030381529060405280519060200120336100af60201b60201c565b50600761009c8482610349565b5060089190915560095550610407915050565b60008281526006602090815260408083206001600160a01b038516845290915281205460ff166101555760008381526006602090815260408083206001600160a01b03861684529091529020805460ff1916600117905561010d3390565b6001600160a01b0316826001600160a01b0316847f2f8788117e7eff1d82e926ec794901d17c78024a50270940304540a733656f0d60405160405180910390a4506001610159565b5060005b92915050565b634e487b7160e01b600052604160045260246000fd5b600082601f83011261018657600080fd5b81516001600160401b0381111561019f5761019f61015f565b604051601f8201601f19908116603f011681016001600160401b03811182821017156101cd576101cd61015f565b6040528181528382016020018510156101e557600080fd5b60005b82811015610204576020818601810151838301820152016101e8565b506000918101602001919091529392505050565b600080600080600060a0868803121561023057600080fd5b85516001600160401b0381111561024657600080fd5b61025288828901610175565b602088015190965090506001600160401b0381111561027057600080fd5b61027c88828901610175565b604088015190955090506001600160401b0381111561029a57600080fd5b6102a688828901610175565b606088015160809098015196999598509695949350505050565b600181811c908216806102d457607f821691505b6020821081036102f457634e487b7160e01b600052602260045260246000fd5b50919050565b601f82111561034457806000526020600020601f840160051c810160208510156103215750805b601f840160051c820191505b81811015610341576000815560010161032d565b50505b505050565b81516001600160401b038111156103625761036261015f565b6103768161037084546102c0565b846102fa565b6020601f8211600181146103aa57600083156103925750848201515b600019600385901b1c1916600184901b178455610341565b600084815260208120601f198516915b828110156103da57878501518255602094850194600190920191016103ba565b50848210156103f85786840151600019600387901b60f8161c191681555b50505050600190811b01905550565b611a57806104166000396000f3fe6080604052600436106101c65760003560e01c806370a08231116100f7578063a22cb46511610095578063d547741f11610064578063d547741f14610518578063ddca3f4314610538578063e985e9c51461054e578063ef8b62011461056e57600080fd5b8063a22cb46514610473578063b88d4fde14610493578063c396cbf4146104b3578063c87b56dd146104f857600080fd5b806391d14854116100d157806391d148541461041357806395d89b4114610433578063a035b1fe14610448578063a217fddf1461045e57600080fd5b806370a08231146103cb578063857fb5b2146103eb5780638dda84091461040b57600080fd5b806323b872dd116101645780632f2ff15d1161013e5780632f2ff15d1461034b57806336568abe1461036b57806342842e0e1461038b5780636352211e146103ab57600080fd5b806323b872dd146102d857806324600fc3146102f8578063248a9ca31461030d57600080fd5b806308865d19116101a057806308865d1914610261578063095ea7b3146102765780630ae5e739146102985780632389b280146102b857600080fd5b806301ffc9a7146101d257806306fdde0314610207578063081812fc1461022957600080fd5b366101cd57005b600080fd5b3480156101de57600080fd5b506101f26101ed3660046114dd565b610576565b60405190151581526020015b60405180910390f35b34801561021357600080fd5b5061021c610587565b6040516101fe919061154a565b34801561023557600080fd5b5061024961024436600461155d565b610619565b6040516001600160a01b0390911681526020016101fe565b34801561026d57600080fd5b5061021c610642565b34801561028257600080fd5b50610296610291366004611592565b610651565b005b3480156102a457600080fd5b506102966102b33660046115bc565b610660565b3480156102c457600080fd5b506102966102d3366004611667565b6106f6565b3480156102e457600080fd5b506102966102f33660046116b0565b610780565b34801561030457600080fd5b5061029661080b565b34801561031957600080fd5b5061033d61032836600461155d565b60009081526006602052604090206001015490565b6040519081526020016101fe565b34801561035757600080fd5b506102966103663660046116ed565b610951565b34801561037757600080fd5b506102966103863660046116ed565b610976565b34801561039757600080fd5b506102966103a63660046116b0565b6109ae565b3480156103b757600080fd5b506102496103c636600461155d565b6109c9565b3480156103d757600080fd5b5061033d6103e63660046115bc565b6109d4565b3480156103f757600080fd5b50610296610406366004611592565b610a1c565b610296610a61565b34801561041f57600080fd5b506101f261042e3660046116ed565b610abb565b34801561043f57600080fd5b5061021c610ae6565b34801561045457600080fd5b5061033d60085481565b34801561046a57600080fd5b5061033d600081565b34801561047f57600080fd5b5061029661048e366004611719565b610af5565b34801561049f57600080fd5b506102966104ae366004611755565b610b00565b3480156104bf57600080fd5b5061033d6040516c2220aa20afa82927ab24a222a960991b6020820152602d016040516020818303038152906040528051906020012081565b34801561050457600080fd5b5061021c61051336600461155d565b610b17565b34801561052457600080fd5b506102966105333660046116ed565b610b8c565b34801561054457600080fd5b5061033d60095481565b34801561055a57600080fd5b506101f26105693660046117d1565b610bb1565b610296610bdf565b600061058182610c33565b92915050565b606060008054610596906117fb565b80601f01602080910402602001604051908101604052809291908181526020018280546105c2906117fb565b801561060f5780601f106105e45761010080835404028352916020019161060f565b820191906000526020600020905b8154815290600101906020018083116105f257829003601f168201915b5050505050905090565b600061062482610c58565b506000828152600460205260409020546001600160a01b0316610581565b606060078054610596906117fb565b61065c828233610c91565b5050565b60085461066c826109d4565b10156106bf5760405162461bcd60e51b815260206004820152601c60248201527f5573657220646f6573206e6f74206f776e20616e7920746f6b656e730000000060448201526064015b60405180910390fd5b6040516001600160a01b038216907fdeb5c31899474fe8c086c95ff9344480d19365676a6a1d22d37bb8e3e7c0ef1890600090a250565b6040516c2220aa20afa82927ab24a222a960991b6020820152602d016040516020818303038152906040528051906020012061073181610c9e565b600761073d838261187c565b508160405161074c919061193b565b604051908190038120907f1023f4f34de175fa6398682c249082d9dbd499b86a1aa83eea6b46f2b74b969f90600090a25050565b6001600160a01b0382166107aa57604051633250574960e11b8152600060048201526024016106b6565b60006107b7838333610cab565b9050836001600160a01b0316816001600160a01b031614610805576040516364283d7b60e01b81526001600160a01b03808616600483015260248201849052821660448201526064016106b6565b50505050565b6040516c2220aa20afa82927ab24a222a960991b6020820152602d016040516020818303038152906040528051906020012061084681610c9e565b478061088b5760405162461bcd60e51b81526020600482015260146024820152734e6f2066756e647320746f20776974686472617760601b60448201526064016106b6565b604051600090339083908381818185875af1925050503d80600081146108cd576040519150601f19603f3d011682016040523d82523d6000602084013e6108d2565b606091505b50509050806109175760405162461bcd60e51b815260206004820152601160248201527015da5d1a191c985dd85b0819985a5b1959607a1b60448201526064016106b6565b60405182815233907f884edad9ce6fa2440d8a54cc123490eb96d2768479d49ff9c7366125a94243649060200160405180910390a2505050565b60008281526006602052604090206001015461096c81610c9e565b6108058383610da4565b6001600160a01b038116331461099f5760405163334bd91960e11b815260040160405180910390fd5b6109a98282610e38565b505050565b6109a983838360405180602001604052806000815250610b00565b600061058182610c58565b60006001600160a01b038216610a00576040516322718ad960e21b8152600060048201526024016106b6565b506001600160a01b031660009081526003602052604090205490565b6040516c2220aa20afa82927ab24a222a960991b6020820152602d0160405160208183030381529060405280519060200120610a5781610c9e565b6109a98383610ea5565b600854341015610a835760405162461bcd60e51b81526004016106b690611957565b60405134815233907f40c307e9ee87b4de7fdad3e4ac94081e74ca6248e6b08ea286ff2c939c08d9cd906020015b60405180910390a2565b60009182526006602090815260408084206001600160a01b0393909316845291905290205460ff1690565b606060018054610596906117fb565b61065c338383610ebf565b610b0b848484610780565b61080584848484610f5e565b6060610b2282610c58565b506000610b3a60408051602081019091526000815290565b90506000815111610b5a5760405180602001604052806000815250610b85565b80610b6484611087565b604051602001610b75929190611998565b6040516020818303038152906040525b9392505050565b600082815260066020526040902060010154610ba781610c9e565b6108058383610e38565b6001600160a01b03918216600090815260056020908152604080832093909416825291909152205460ff1690565b600954341015610c015760405162461bcd60e51b81526004016106b690611957565b60405134815233907fa92c580113c005957e0fa2b2bafccbf16a9f460de84331307abca6356c83ba0690602001610ab1565b60006001600160e01b03198216637965db0b60e01b148061058157506105818261111a565b6000818152600260205260408120546001600160a01b03168061058157604051637e27328960e01b8152600481018490526024016106b6565b6109a9838383600161116a565b610ca88133611270565b50565b6000828152600260205260408120546001600160a01b0390811690831615610cd857610cd88184866112a9565b6001600160a01b03811615610d1657610cf560008560008061116a565b6001600160a01b038116600090815260036020526040902080546000190190555b6001600160a01b03851615610d45576001600160a01b0385166000908152600360205260409020805460010190555b60008481526002602052604080822080546001600160a01b0319166001600160a01b0389811691821790925591518793918516917fddf252ad1be2c89b69c2b068fc378daa952ba7f163c4a11628f55a4df523b3ef91a4949350505050565b6000610db08383610abb565b610e305760008381526006602090815260408083206001600160a01b03861684529091529020805460ff19166001179055610de83390565b6001600160a01b0316826001600160a01b0316847f2f8788117e7eff1d82e926ec794901d17c78024a50270940304540a733656f0d60405160405180910390a4506001610581565b506000610581565b6000610e448383610abb565b15610e305760008381526006602090815260408083206001600160a01b0386168085529252808320805460ff1916905551339286917ff6391f5c32d9c69d2a47ea670b442974b53935d1edc7fd64eb21e047a839171b9190a4506001610581565b61065c82826040518060200160405280600081525061130d565b6001600160a01b038216610ef157604051630b61174360e31b81526001600160a01b03831660048201526024016106b6565b6001600160a01b03838116600081815260056020908152604080832094871680845294825291829020805460ff191686151590811790915591519182527f17307eab39ab6107e8899845ad3d59bd9653f200f220920489ca2b5937696c31910160405180910390a3505050565b6001600160a01b0383163b1561080557604051630a85bd0160e11b81526001600160a01b0384169063150b7a0290610fa09033908890879087906004016119c7565b6020604051808303816000875af1925050508015610fdb575060408051601f3d908101601f19168201909252610fd891810190611a04565b60015b611044573d808015611009576040519150601f19603f3d011682016040523d82523d6000602084013e61100e565b606091505b50805160000361103c57604051633250574960e11b81526001600160a01b03851660048201526024016106b6565b805181602001fd5b6001600160e01b03198116630a85bd0160e11b1461108057604051633250574960e11b81526001600160a01b03851660048201526024016106b6565b5050505050565b6060600061109483611324565b600101905060008167ffffffffffffffff8111156110b4576110b46115d7565b6040519080825280601f01601f1916602001820160405280156110de576020820181803683370190505b5090508181016020015b600019016f181899199a1a9b1b9c1cb0b131b232b360811b600a86061a8153600a85049450846110e857509392505050565b60006001600160e01b031982166380ac58cd60e01b148061114b57506001600160e01b03198216635b5e139f60e01b145b8061058157506301ffc9a760e01b6001600160e01b0319831614610581565b808061117e57506001600160a01b03821615155b1561124057600061118e84610c58565b90506001600160a01b038316158015906111ba5750826001600160a01b0316816001600160a01b031614155b80156111cd57506111cb8184610bb1565b155b156111f65760405163a9fbf51f60e01b81526001600160a01b03841660048201526024016106b6565b811561123e5783856001600160a01b0316826001600160a01b03167f8c5be1e5ebec7d5bd14f71427d1e84f3dd0314c0f7b2291e5b200ac8c7c3b92560405160405180910390a45b505b5050600090815260046020526040902080546001600160a01b0319166001600160a01b0392909216919091179055565b61127a8282610abb565b61065c5760405163e2517d3f60e01b81526001600160a01b0382166004820152602481018390526044016106b6565b6112b48383836113fc565b6109a9576001600160a01b0383166112e257604051637e27328960e01b8152600481018290526024016106b6565b60405163177e802f60e01b81526001600160a01b0383166004820152602481018290526044016106b6565b6113178383611462565b6109a96000848484610f5e565b60008072184f03e93ff9f4daa797ed6e38ed64bf6a1f0160401b83106113635772184f03e93ff9f4daa797ed6e38ed64bf6a1f0160401b830492506040015b6d04ee2d6d415b85acef8100000000831061138f576d04ee2d6d415b85acef8100000000830492506020015b662386f26fc1000083106113ad57662386f26fc10000830492506010015b6305f5e10083106113c5576305f5e100830492506008015b61271083106113d957612710830492506004015b606483106113eb576064830492506002015b600a83106105815760010192915050565b60006001600160a01b0383161580159061145a5750826001600160a01b0316846001600160a01b0316148061143657506114368484610bb1565b8061145a57506000828152600460205260409020546001600160a01b038481169116145b949350505050565b6001600160a01b03821661148c57604051633250574960e11b8152600060048201526024016106b6565b600061149a83836000610cab565b90506001600160a01b038116156109a9576040516339e3563760e11b8152600060048201526024016106b6565b6001600160e01b031981168114610ca857600080fd5b6000602082840312156114ef57600080fd5b8135610b85816114c7565b60005b838110156115155781810151838201526020016114fd565b50506000910152565b600081518084526115368160208601602086016114fa565b601f01601f19169290920160200192915050565b602081526000610b85602083018461151e565b60006020828403121561156f57600080fd5b5035919050565b80356001600160a01b038116811461158d57600080fd5b919050565b600080604083850312156115a557600080fd5b6115ae83611576565b946020939093013593505050565b6000602082840312156115ce57600080fd5b610b8582611576565b634e487b7160e01b600052604160045260246000fd5b60008067ffffffffffffffff841115611608576116086115d7565b50604051601f19601f85018116603f0116810181811067ffffffffffffffff82111715611637576116376115d7565b60405283815290508082840185101561164f57600080fd5b83836020830137600060208583010152509392505050565b60006020828403121561167957600080fd5b813567ffffffffffffffff81111561169057600080fd5b8201601f810184136116a157600080fd5b61145a848235602084016115ed565b6000806000606084860312156116c557600080fd5b6116ce84611576565b92506116dc60208501611576565b929592945050506040919091013590565b6000806040838503121561170057600080fd5b8235915061171060208401611576565b90509250929050565b6000806040838503121561172c57600080fd5b61173583611576565b91506020830135801515811461174a57600080fd5b809150509250929050565b6000806000806080858703121561176b57600080fd5b61177485611576565b935061178260208601611576565b925060408501359150606085013567ffffffffffffffff8111156117a557600080fd5b8501601f810187136117b657600080fd5b6117c5878235602084016115ed565b91505092959194509250565b600080604083850312156117e457600080fd5b6117ed83611576565b915061171060208401611576565b600181811c9082168061180f57607f821691505b60208210810361182f57634e487b7160e01b600052602260045260246000fd5b50919050565b601f8211156109a957806000526020600020601f840160051c8101602085101561185c5750805b601f840160051c820191505b818110156110805760008155600101611868565b815167ffffffffffffffff811115611896576118966115d7565b6118aa816118a484546117fb565b84611835565b6020601f8211600181146118de57600083156118c65750848201515b600019600385901b1c1916600184901b178455611080565b600084815260208120601f198516915b8281101561190e57878501518255602094850194600190920191016118ee565b508482101561192c5786840151600019600387901b60f8161c191681555b50505050600190811b01905550565b6000825161194d8184602087016114fa565b9190910192915050565b60208082526021908201527f5061796d656e74206d7573742062652067726561746572207468616e207a65726040820152606f60f81b606082015260800190565b600083516119aa8184602088016114fa565b8351908301906119be8183602088016114fa565b01949350505050565b6001600160a01b03858116825284166020820152604081018390526080606082018190526000906119fa9083018461151e565b9695505050505050565b600060208284031215611a1657600080fd5b8151610b85816114c756fea2646970667358221220b2f86c86c4ef8cd09656fa3a6575a5d67daf88bf37da2591c881094187b8720d64736f6c634300081a0033608060405234801561001057600080fd5b5060405161189338038061189383398101604081905261002f91610352565b6040518060400160405280600f81526020016e29bab13634b1b2b739b2aa37b5b2b760891b8152506040518060400160405280600381526020016214d31560ea1b8152508160039081610082919061042d565b50600461008f828261042d565b50506040516d20a9a9a2aa2fa82927ab24a222a960911b60208201526100d59150602e01604051602081830303815290604052805190602001208461011d60201b60201c565b506100f68160126100e785600a610501565b6100f19190610501565b6101cd565b5050600780546001600160a01b0319166001600160a01b039290921691909117905561052b565b60008281526005602090815260408083206001600160a01b038516845290915281205460ff166101c35760008381526005602090815260408083206001600160a01b03861684529091529020805460ff1916600117905561017b3390565b6001600160a01b0316826001600160a01b0316847f2f8788117e7eff1d82e926ec794901d17c78024a50270940304540a733656f0d60405160405180910390a45060016101c7565b5060005b92915050565b6001600160a01b0382166101fc5760405163ec442f0560e01b8152600060048201526024015b60405180910390fd5b6102086000838361020c565b5050565b6001600160a01b03831661023757806002600082825461022c9190610518565b909155506102a99050565b6001600160a01b0383166000908152602081905260409020548181101561028a5760405163391434e360e21b81526001600160a01b038516600482015260248101829052604481018390526064016101f3565b6001600160a01b03841660009081526020819052604090209082900390555b6001600160a01b0382166102c5576002805482900390556102e4565b6001600160a01b03821660009081526020819052604090208054820190555b816001600160a01b0316836001600160a01b03167fddf252ad1be2c89b69c2b068fc378daa952ba7f163c4a11628f55a4df523b3ef8360405161032991815260200190565b60405180910390a3505050565b80516001600160a01b038116811461034d57600080fd5b919050565b60008060006060848603121561036757600080fd5b61037084610336565b92506020840151915061038560408501610336565b90509250925092565b634e487b7160e01b600052604160045260246000fd5b600181811c908216806103b857607f821691505b6020821081036103d857634e487b7160e01b600052602260045260246000fd5b50919050565b601f82111561042857806000526020600020601f840160051c810160208510156104055750805b601f840160051c820191505b818110156104255760008155600101610411565b50505b505050565b81516001600160401b038111156104465761044661038e565b61045a8161045484546103a4565b846103de565b6020601f82116001811461048e57600083156104765750848201515b600019600385901b1c1916600184901b178455610425565b600084815260208120601f198516915b828110156104be578785015182556020948501946001909201910161049e565b50848210156104dc5786840151600019600387901b60f8161c191681555b50505050600190811b01905550565b634e487b7160e01b600052601160045260246000fd5b80820281158282048414176101c7576101c76104eb565b808201808211156101c7576101c76104eb565b6113598061053a6000396000f3fe6080604052600436106101855760003560e01c806340c10f19116100d157806391d148541161008a578063a9059cbb11610064578063a9059cbb146104ba578063d547741f146104da578063dd62ed3e146104fa578063ec03e2411461054057600080fd5b806391d148541461047057806395d89b4114610490578063a217fddf146104a557600080fd5b806340c10f19146103945780635fed8aa8146103b45780636906766f146103b457806369ab800b146103d45780636a61e5fc1461041a57806370a082311461043a57600080fd5b8063204120bc1161013e5780632f2ff15d116101185780632f2ff15d14610325578063313ce5671461034557806336568abe146103615780633bed33ce1461038157600080fd5b8063204120bc146102a857806323b872dd146102d5578063248a9ca3146102f557600080fd5b806301ffc9a7146101e757806306fdde031461021c5780630752881a1461023e578063095ea7b31461025357806318160ddd146102735780631da938731461029257600080fd5b366101e25760405162461bcd60e51b815260206004820152602260248201527f446972656374204574686572207061796d656e7473206e6f7420616363657074604482015261195960f21b60648201526084015b60405180910390fd5b600080fd5b3480156101f357600080fd5b50610207610202366004611111565b610578565b60405190151581526020015b60405180910390f35b34801561022857600080fd5b506102316105af565b6040516102139190611142565b61025161024c3660046111a5565b610641565b005b34801561025f57600080fd5b5061020761026e3660046111a5565b610912565b34801561027f57600080fd5b506002545b604051908152602001610213565b34801561029e57600080fd5b5061028460085481565b3480156102b457600080fd5b506102846102c33660046111d1565b60066020526000908152604090205481565b3480156102e157600080fd5b506102076102f03660046111ee565b61092a565b34801561030157600080fd5b5061028461031036600461122f565b60009081526005602052604090206001015490565b34801561033157600080fd5b50610251610340366004611248565b61094e565b34801561035157600080fd5b5060405160128152602001610213565b34801561036d57600080fd5b5061025161037c366004611248565b610979565b61025161038f36600461122f565b6109b1565b3480156103a057600080fd5b506102516103af3660046111a5565b610a90565b3480156103c057600080fd5b506102516103cf366004611278565b610ad6565b3480156103e057600080fd5b506102846040516d20a9a9a2aa2fa82927ab24a222a960911b6020820152602e016040516020818303038152906040528051906020012081565b34801561042657600080fd5b5061025161043536600461122f565b610be9565b34801561044657600080fd5b506102846104553660046111d1565b6001600160a01b031660009081526020819052604090205490565b34801561047c57600080fd5b5061020761048b366004611248565b610c48565b34801561049c57600080fd5b50610231610c73565b3480156104b157600080fd5b50610284600081565b3480156104c657600080fd5b506102076104d53660046111a5565b610c82565b3480156104e657600080fd5b506102516104f5366004611248565b610c90565b34801561050657600080fd5b50610284610515366004611278565b6001600160a01b03918216600090815260016020908152604080832093909416825291909152205490565b34801561054c57600080fd5b50600754610560906001600160a01b031681565b6040516001600160a01b039091168152602001610213565b60006001600160e01b03198216637965db0b60e01b14806105a957506301ffc9a760e01b6001600160e01b03198316145b92915050565b6060600380546105be906112a6565b80601f01602080910402602001604051908101604052809291908181526020018280546105ea906112a6565b80156106375780601f1061060c57610100808354040283529160200191610637565b820191906000526020600020905b81548152906001019060200180831161061a57829003601f168201915b5050505050905090565b60006001600160a01b0383166106c557600034116106be5760405162461bcd60e51b815260206004820152603460248201527f596f75206e65656420746f2073656e6420736f6d6520457468657220746f20626044820152737579207375626c6963656e736520746f6b656e7360601b60648201526084016101d9565b50346107fc565b6001600160a01b038316600090815260066020526040902054806107365760405162461bcd60e51b815260206004820152602260248201527f54686973207061796d656e7420746f6b656e206973206e6f7420616363657074604482015261195960f21b60648201526084016101d9565b6007546040516323b872dd60e01b81523360048201526001600160a01b03918216602482015260448101859052849350908516906323b872dd906064016020604051808303816000875af1158015610792573d6000803e3d6000fd5b505050506040513d601f19601f820116820180604052508101906107b691906112e0565b6107fa5760405162461bcd60e51b8152602060048201526015602482015274151bdad95b881d1c985b9cd9995c8819985a5b1959605a1b60448201526064016101d9565b505b6000811161085e5760405162461bcd60e51b815260206004820152602960248201527f496e73756666696369656e74207061796d656e7420616d6f756e7420746f2062604482015268757920746f6b656e7360b81b60648201526084016101d9565b30600090815260208190526040902054818110156108be5760405162461bcd60e51b815260206004820181905260248201527f4e6f7420656e6f75676820746f6b656e7320696e20746865207265736572766560448201526064016101d9565b6108c9303384610cb5565b604080518381526001600160a01b038616602082015233917fdeb694333db427a215bd304eb27e4cd3d611bfb117c37646ef7b4fffe5611bcc910160405180910390a250505050565b600033610920818585610d14565b5060019392505050565b600033610938858285610d21565b610943858585610cb5565b506001949350505050565b60008281526005602052604090206001015461096981610d99565b6109738383610da6565b50505050565b6001600160a01b03811633146109a25760405163334bd91960e11b815260040160405180910390fd5b6109ac8282610e3a565b505050565b6007546001600160a01b03163314610a0b5760405162461bcd60e51b815260206004820181905260248201527f43616c6c6572206973206e6f742074686520446174614e465420686f6c64657260448201526064016101d9565b80471015610a525760405162461bcd60e51b8152602060048201526014602482015273496e73756666696369656e742062616c616e636560601b60448201526064016101d9565b6007546040516001600160a01b039091169082156108fc029083906000818181858888f19350505050158015610a8c573d6000803e3d6000fd5b5050565b6040516d20a9a9a2aa2fa82927ab24a222a960911b6020820152602e0160405160208183030381529060405280519060200120610acc81610d99565b6109ac8383610ea7565b816000610af8836001600160a01b031660009081526020819052604090205490565b11610b555760405162461bcd60e51b815260206004820152602760248201527f5573657220646f6573206e6f74206f776e20616e79207375626c6963656e736560448201526620746f6b656e7360c81b60648201526084016101d9565b604051630ae5e73960e01b81526001600160a01b038381166004830152821690630ae5e73990602401600060405180830381600087803b158015610b9857600080fd5b505af1158015610bac573d6000803e3d6000fd5b50506040516001600160a01b03851692507fdeb5c31899474fe8c086c95ff9344480d19365676a6a1d22d37bb8e3e7c0ef189150600090a2505050565b6007546001600160a01b03163314610c435760405162461bcd60e51b815260206004820181905260248201527f43616c6c6572206973206e6f742074686520446174614e465420686f6c64657260448201526064016101d9565b600855565b60009182526005602090815260408084206001600160a01b0393909316845291905290205460ff1690565b6060600480546105be906112a6565b600033610920818585610cb5565b600082815260056020526040902060010154610cab81610d99565b6109738383610e3a565b6001600160a01b038316610cdf57604051634b637e8f60e11b8152600060048201526024016101d9565b6001600160a01b038216610d095760405163ec442f0560e01b8152600060048201526024016101d9565b6109ac838383610ed9565b6109ac8383836001611003565b6001600160a01b0383811660009081526001602090815260408083209386168352929052205460001981146109735781811015610d8a57604051637dc7a0d960e11b81526001600160a01b038416600482015260248101829052604481018390526064016101d9565b61097384848484036000611003565b610da381336110d8565b50565b6000610db28383610c48565b610e325760008381526005602090815260408083206001600160a01b03861684529091529020805460ff19166001179055610dea3390565b6001600160a01b0316826001600160a01b0316847f2f8788117e7eff1d82e926ec794901d17c78024a50270940304540a733656f0d60405160405180910390a45060016105a9565b5060006105a9565b6000610e468383610c48565b15610e325760008381526005602090815260408083206001600160a01b0386168085529252808320805460ff1916905551339286917ff6391f5c32d9c69d2a47ea670b442974b53935d1edc7fd64eb21e047a839171b9190a45060016105a9565b6001600160a01b038216610ed15760405163ec442f0560e01b8152600060048201526024016101d9565b610a8c600083835b6001600160a01b038316610f04578060026000828254610ef99190611302565b90915550610f769050565b6001600160a01b03831660009081526020819052604090205481811015610f575760405163391434e360e21b81526001600160a01b038516600482015260248101829052604481018390526064016101d9565b6001600160a01b03841660009081526020819052604090209082900390555b6001600160a01b038216610f9257600280548290039055610fb1565b6001600160a01b03821660009081526020819052604090208054820190555b816001600160a01b0316836001600160a01b03167fddf252ad1be2c89b69c2b068fc378daa952ba7f163c4a11628f55a4df523b3ef83604051610ff691815260200190565b60405180910390a3505050565b6001600160a01b03841661102d5760405163e602df0560e01b8152600060048201526024016101d9565b6001600160a01b03831661105757604051634a1406b160e11b8152600060048201526024016101d9565b6001600160a01b038085166000908152600160209081526040808320938716835292905220829055801561097357826001600160a01b0316846001600160a01b03167f8c5be1e5ebec7d5bd14f71427d1e84f3dd0314c0f7b2291e5b200ac8c7c3b925846040516110ca91815260200190565b60405180910390a350505050565b6110e28282610c48565b610a8c5760405163e2517d3f60e01b81526001600160a01b0382166004820152602481018390526044016101d9565b60006020828403121561112357600080fd5b81356001600160e01b03198116811461113b57600080fd5b9392505050565b602081526000825180602084015260005b818110156111705760208186018101516040868401015201611153565b506000604082850101526040601f19601f83011684010191505092915050565b6001600160a01b0381168114610da357600080fd5b600080604083850312156111b857600080fd5b82356111c381611190565b946020939093013593505050565b6000602082840312156111e357600080fd5b813561113b81611190565b60008060006060848603121561120357600080fd5b833561120e81611190565b9250602084013561121e81611190565b929592945050506040919091013590565b60006020828403121561124157600080fd5b5035919050565b6000806040838503121561125b57600080fd5b82359150602083013561126d81611190565b809150509250929050565b6000806040838503121561128b57600080fd5b823561129681611190565b9150602083013561126d81611190565b600181811c908216806112ba57607f821691505b6020821081036112da57634e487b7160e01b600052602260045260246000fd5b50919050565b6000602082840312156112f257600080fd5b8151801515811461113b57600080fd5b808201808211156105a957634e487b7160e01b600052601160045260246000fdfea2646970667358221220c1d2e3dd3677e1591c960740bde38081c28c5b9659e950151f6982722bd99c5164736f6c634300081a0033a2646970667358221220f83ff8896d00671f2810e38728734a83fbd23bba96b7aef9a8632630884dc88664736f6c634300081a0033","linkReferences":{}},"methodIdentifiers":{"ASSET_PROVIDER()":"69ab800b","createDataNFT(string,string,uint256,string,uint256,uint256)":"953787d3","dataNFTs(uint256)":"d3007815","getDeployedDataNFTs()":"450a48f4","getDeployedSublicenseTokens()":"098306b9","owner()":"8da5cb5b","renounceOwnership()":"715018a6","setSublicenseTokenPrice(address,uint256)":"1086f05a","sublicenseTokens(uint256)":"79428d1d","transferOwnership(address)":"f2fde38b"},"id":20}