{"abi":[{"type":"constructor","inputs":[{"name":"defaultAdmin","type":"address","internalType":"address"}],"stateMutability":"nonpayable"},{"type":"function","name":"ASSET_PROVIDER","inputs":[],"outputs":[{"name":"","type":"bytes32","internalType":"bytes32"}],"stateMutability":"view"},{"type":"function","name":"createModelNFT","inputs":[{"name":"name","type":"string","internalType":"string"},{"name":"symbol","type":"string","internalType":"string"},{"name":"initialSupply","type":"uint256","internalType":"uint256"},{"name":"ipfsURI","type":"string","internalType":"string"},{"name":"paymentToken","type":"address","internalType":"address"},{"name":"modelPrice","type":"uint256","internalType":"uint256"},{"name":"tokenPrice","type":"uint256","internalType":"uint256"},{"name":"dataNFTAddress","type":"address","internalType":"address"},{"name":"assetProviderAddress","type":"address","internalType":"address"}],"outputs":[],"stateMutability":"nonpayable"},{"type":"function","name":"getDeployedModelNFTs","inputs":[],"outputs":[{"name":"","type":"address[]","internalType":"contract ModelNFT[]"}],"stateMutability":"view"},{"type":"function","name":"getDeployedSublicenseTokens","inputs":[],"outputs":[{"name":"","type":"address[]","internalType":"contract SublicenseToken[]"}],"stateMutability":"view"},{"type":"function","name":"modelNFTs","inputs":[{"name":"","type":"uint256","internalType":"uint256"}],"outputs":[{"name":"","type":"address","internalType":"contract ModelNFT"}],"stateMutability":"view"},{"type":"function","name":"owner","inputs":[],"outputs":[{"name":"","type":"address","internalType":"address"}],"stateMutability":"view"},{"type":"function","name":"renounceOwnership","inputs":[],"outputs":[],"stateMutability":"nonpayable"},{"type":"function","name":"setSublicenseTokenPrice","inputs":[{"name":"sublicenseTokenAddress","type":"address","internalType":"address payable"},{"name":"paymentToken","type":"address","internalType":"address"},{"name":"price","type":"uint256","internalType":"uint256"}],"outputs":[],"stateMutability":"nonpayable"},{"type":"function","name":"sublicenseTokens","inputs":[{"name":"","type":"uint256","internalType":"uint256"}],"outputs":[{"name":"","type":"address","internalType":"contract SublicenseToken"}],"stateMutability":"view"},{"type":"function","name":"transferOwnership","inputs":[{"name":"newOwner","type":"address","internalType":"address"}],"outputs":[],"stateMutability":"nonpayable"},{"type":"event","name":"ModelNFTCreated","inputs":[{"name":"modelNFTHolder","type":"address","indexed":false,"internalType":"address"},{"name":"modelNFTAddress","type":"address","indexed":false,"internalType":"address"},{"name":"sublicenseTokenAddress","type":"address","indexed":false,"internalType":"address"}],"anonymous":false},{"type":"event","name":"OwnershipTransferred","inputs":[{"name":"previousOwner","type":"address","indexed":true,"internalType":"address"},{"name":"newOwner","type":"address","indexed":true,"internalType":"address"}],"anonymous":false},{"type":"error","name":"OwnableInvalidOwner","inputs":[{"name":"owner","type":"address","internalType":"address"}]},{"type":"error","name":"OwnableUnauthorizedAccount","inputs":[{"name":"account","type":"address","internalType":"address"}]}],"bytecode":{"object":"0x608060405234801561001057600080fd5b5060405161444338038061444383398101604081905261002f916100be565b806001600160a01b03811661005e57604051631e4fbdf760e01b81526000600482015260240160405180910390fd5b6100678161006e565b50506100ee565b600080546001600160a01b038381166001600160a01b0319831681178455604051919092169283917f8be0079c531659141344cd1fd0a4f28419497f9722a3daafe3b4186f6b6457e09190a35050565b6000602082840312156100d057600080fd5b81516001600160a01b03811681146100e757600080fd5b9392505050565b614346806100fd6000396000f3fe608060405234801561001057600080fd5b506004361061009e5760003560e01c8063761faea311610066578063761faea31461015057806379428d1d146101585780638da5cb5b1461016b578063a3f3d0a71461017c578063f2fde38b1461018f57600080fd5b8063098306b9146100a35780631227f772146100c15780632d70b243146100ec57806369ab800b14610101578063715018a614610148575b600080fd5b6100ab6101a2565b6040516100b89190610721565b60405180910390f35b6100d46100cf36600461076d565b610204565b6040516001600160a01b0390911681526020016100b8565b6100ff6100fa366004610850565b61022e565b005b61013a6040516d20a9a9a2aa2fa82927ab24a222a960911b6020820152602e016040516020818303038152906040528051906020012081565b6040519081526020016100b8565b6100ff610454565b6100ab610468565b6100d461016636600461076d565b6104c8565b6000546001600160a01b03166100d4565b6100ff61018a366004610934565b6104d8565b6100ff61019d366004610975565b61064c565b606060028054806020026020016040519081016040528092919081815260200182805480156101fa57602002820191906000526020600020905b81546001600160a01b031681526001909101906020018083116101dc575b5050505050905090565b6001818154811061021457600080fd5b6000918252602090912001546001600160a01b0316905081565b6000898988858860405161024190610707565b61024f9594939291906109df565b604051809103906000f08015801561026b573d6000803e3d6000fd5b506040516247136560e71b81529091506001600160a01b03821690632389b2809061029a908a90600401610a36565b600060405180830381600087803b1580156102b457600080fd5b505af11580156102c8573d6000803e3d6000fd5b5050505060008289336040516102dd90610714565b6001600160a01b03938416815260208101929092529091166040820152606001604051809103906000f080158015610319573d6000803e3d6000fd5b5060405163431f63c960e01b81526001600160a01b038981166004830152602482018890529192509082169063431f63c990604401600060405180830381600087803b15801561036857600080fd5b505af115801561037c573d6000803e3d6000fd5b50506001805480820182557fb10e2d527612073b26eecdfd717e6a320cf44b4afac2b0732d9fcbe2b7fa0cf60180546001600160a01b03199081166001600160a01b038881169182179093556002805494850181556000527f405787fa12a823e0f2b7631cc41b3ba8828b3321ca811111fa75cd3aa3bb5ace909301805490911691861691821790556040805133815260208101939093528201527f53af0ed001910596707c25d2bb23334b5005ca290cbc1c2a1b17d73d65d5dea49250606001905060405180910390a15050505050505050505050565b61045c61068a565b61046660006106b7565b565b606060018054806020026020016040519081016040528092919081815260200182805480156101fa576020028201919060005260206000209081546001600160a01b031681526001909101906020018083116101dc575050505050905090565b6002818154811061021457600080fd5b6040516d20a9a9a2aa2fa82927ab24a222a960911b602082015283906001600160a01b038216906391d1485490602e0160408051601f198184030181529082905280516020909101206001600160e01b031960e084901b1682526004820152336024820152604401602060405180830381865afa15801561055d573d6000803e3d6000fd5b505050506040513d601f19601f820116820180604052508101906105819190610a49565b6105e45760405162461bcd60e51b815260206004820152602960248201527f4f6e6c792074686520446174614e465420686f6c6465722063616e207365742060448201526874686520707269636560b81b60648201526084015b60405180910390fd5b60405163431f63c960e01b81526001600160a01b0384811660048301526024820184905282169063431f63c990604401600060405180830381600087803b15801561062e57600080fd5b505af1158015610642573d6000803e3d6000fd5b5050505050505050565b61065461068a565b6001600160a01b03811661067e57604051631e4fbdf760e01b8152600060048201526024016105db565b610687816106b7565b50565b6000546001600160a01b031633146104665760405163118cdaa760e01b81523360048201526024016105db565b600080546001600160a01b038381166001600160a01b0319831681178455604051919092169283917f8be0079c531659141344cd1fd0a4f28419497f9722a3daafe3b4186f6b6457e09190a35050565b61202c80610a6c83390190565b61187980612a9883390190565b602080825282518282018190526000918401906040840190835b818110156107625783516001600160a01b031683526020938401939092019160010161073b565b509095945050505050565b60006020828403121561077f57600080fd5b5035919050565b634e487b7160e01b600052604160045260246000fd5b600082601f8301126107ad57600080fd5b813567ffffffffffffffff8111156107c7576107c7610786565b604051601f8201601f19908116603f0116810167ffffffffffffffff811182821017156107f6576107f6610786565b60405281815283820160200185101561080e57600080fd5b816020850160208301376000918101602001919091529392505050565b6001600160a01b038116811461068757600080fd5b803561084b8161082b565b919050565b60008060008060008060008060006101208a8c03121561086f57600080fd5b893567ffffffffffffffff81111561088657600080fd5b6108928c828d0161079c565b99505060208a013567ffffffffffffffff8111156108af57600080fd5b6108bb8c828d0161079c565b98505060408a0135965060608a013567ffffffffffffffff8111156108df57600080fd5b6108eb8c828d0161079c565b9650506108fa60808b01610840565b945060a08a0135935060c08a0135925061091660e08b01610840565b91506109256101008b01610840565b90509295985092959850929598565b60008060006060848603121561094957600080fd5b83356109548161082b565b925060208401356109648161082b565b929592945050506040919091013590565b60006020828403121561098757600080fd5b81356109928161082b565b9392505050565b6000815180845260005b818110156109bf576020818501810151868301820152016109a3565b506000602082860101526020601f19601f83011685010191505092915050565b60a0815260006109f260a0830188610999565b8281036020840152610a048188610999565b90508281036040840152610a188187610999565b6001600160a01b039590951660608401525050608001529392505050565b6020815260006109926020830184610999565b600060208284031215610a5b57600080fd5b8151801515811461099257600080fdfe608060405234801561001057600080fd5b5060405161202c38038061202c83398101604081905261002f91610235565b8484600061003d8382610380565b50600161004a8282610380565b50506040516e26a7a222a62fa222ab22a627a822a960891b60208201526100919150602f0160405160208183030381529060405280519060200120336100cc60201b60201c565b50600761009e8482610380565b50600880546001600160a01b0319166001600160a01b0393909316929092179091556009555061043e915050565b60008281526006602090815260408083206001600160a01b038516845290915281205460ff166101725760008381526006602090815260408083206001600160a01b03861684529091529020805460ff1916600117905561012a3390565b6001600160a01b0316826001600160a01b0316847f2f8788117e7eff1d82e926ec794901d17c78024a50270940304540a733656f0d60405160405180910390a4506001610176565b5060005b92915050565b634e487b7160e01b600052604160045260246000fd5b600082601f8301126101a357600080fd5b81516001600160401b038111156101bc576101bc61017c565b604051601f8201601f19908116603f011681016001600160401b03811182821017156101ea576101ea61017c565b60405281815283820160200185101561020257600080fd5b60005b8281101561022157602081860181015183830182015201610205565b506000918101602001919091529392505050565b600080600080600060a0868803121561024d57600080fd5b85516001600160401b0381111561026357600080fd5b61026f88828901610192565b602088015190965090506001600160401b0381111561028d57600080fd5b61029988828901610192565b604088015190955090506001600160401b038111156102b757600080fd5b6102c388828901610192565b606088015190945090506001600160a01b03811681146102e257600080fd5b60809690960151949793965091949392915050565b600181811c9082168061030b57607f821691505b60208210810361032b57634e487b7160e01b600052602260045260246000fd5b50919050565b601f82111561037b57806000526020600020601f840160051c810160208510156103585750805b601f840160051c820191505b818110156103785760008155600101610364565b50505b505050565b81516001600160401b038111156103995761039961017c565b6103ad816103a784546102f7565b84610331565b6020601f8211600181146103e157600083156103c95750848201515b600019600385901b1c1916600184901b178455610378565b600084815260208120601f198516915b8281101561041157878501518255602094850194600190920191016103f1565b508482101561042f5786840151600019600387901b60f8161c191681555b50505050600190811b01905550565b611bdf8061044d6000396000f3fe6080604052600436106101d15760003560e01c80636352211e116100f75780639c896d2311610095578063b88d4fde11610064578063b88d4fde14610508578063c87b56dd14610528578063d547741f14610548578063e985e9c51461056857600080fd5b80639c896d23146104a8578063a035b1fe146104bd578063a217fddf146104d3578063a22cb465146104e857600080fd5b806370a08231116100d157806370a0823114610433578063857fb5b21461045357806391d148541461047357806395d89b411461049357600080fd5b80636352211e146103de57806368581381146103fe5780636aeea1691461041357600080fd5b80632389b2801161016f5780632f2ff15d1161013e5780632f2ff15d1461037657806336568abe1461039657806342842e0e146103b6578063547b50c2146103d657600080fd5b80632389b280146102e357806323b872dd1461030357806324600fc314610323578063248a9ca31461033857600080fd5b806308865d19116101ab57806308865d191461026c578063095ea7b3146102815780630ae5e739146102a3578063172bede0146102c357600080fd5b806301ffc9a7146101dd57806306fdde0314610212578063081812fc1461023457600080fd5b366101d857005b600080fd5b3480156101e957600080fd5b506101fd6101f83660046116a6565b610588565b60405190151581526020015b60405180910390f35b34801561021e57600080fd5b50610227610599565b6040516102099190611713565b34801561024057600080fd5b5061025461024f366004611726565b61062b565b6040516001600160a01b039091168152602001610209565b34801561027857600080fd5b50610227610654565b34801561028d57600080fd5b506102a161029c36600461175b565b610663565b005b3480156102af57600080fd5b506102a16102be366004611785565b610672565b3480156102cf57600080fd5b506102a16102de366004611726565b610708565b3480156102ef57600080fd5b506102a16102fe366004611830565b610849565b34801561030f57600080fd5b506102a161031e366004611879565b6108d5565b34801561032f57600080fd5b506102a1610960565b34801561034457600080fd5b50610368610353366004611726565b60009081526006602052604090206001015490565b604051908152602001610209565b34801561038257600080fd5b506102a16103913660046118b6565b610aa8565b3480156103a257600080fd5b506102a16103b13660046118b6565b610acd565b3480156103c257600080fd5b506102a16103d1366004611879565b610b05565b6102a1610b20565b3480156103ea57600080fd5b506102546103f9366004611726565b610bea565b34801561040a57600080fd5b50610368610bf5565b34801561041f57600080fd5b50600854610254906001600160a01b031681565b34801561043f57600080fd5b5061036861044e366004611785565b610c2d565b34801561045f57600080fd5b506102a161046e36600461175b565b610c75565b34801561047f57600080fd5b506101fd61048e3660046118b6565b610cbc565b34801561049f57600080fd5b50610227610ce7565b3480156104b457600080fd5b50610368610cf6565b3480156104c957600080fd5b5061036860095481565b3480156104df57600080fd5b50610368600081565b3480156104f457600080fd5b506102a16105033660046118e2565b610d12565b34801561051457600080fd5b506102a161052336600461191e565b610d1d565b34801561053457600080fd5b50610227610543366004611726565b610d34565b34801561055457600080fd5b506102a16105633660046118b6565b610da9565b34801561057457600080fd5b506101fd61058336600461199a565b610dce565b600061059382610dfc565b92915050565b6060600080546105a8906119c4565b80601f01602080910402602001604051908101604052809291908181526020018280546105d4906119c4565b80156106215780601f106105f657610100808354040283529160200191610621565b820191906000526020600020905b81548152906001019060200180831161060457829003601f168201915b5050505050905090565b600061063682610e21565b506000828152600460205260409020546001600160a01b0316610593565b6060600780546105a8906119c4565b61066e828233610e5a565b5050565b60095461067e82610c2d565b10156106d15760405162461bcd60e51b815260206004820152601c60248201527f5573657220646f6573206e6f74206f776e20616e7920746f6b656e730000000060448201526064015b60405180910390fd5b6040516001600160a01b038216907fdeb5c31899474fe8c086c95ff9344480d19365676a6a1d22d37bb8e3e7c0ef1890600090a250565b6040516e26a7a222a62fa222ab22a627a822a960891b6020820152602f016040516020818303038152906040528051906020012061074581610e67565b600082116107955760405162461bcd60e51b815260206004820181905260248201527f416d6f756e74206d7573742062652067726561746572207468616e207a65726f60448201526064016106c8565b814710156107dc5760405162461bcd60e51b8152602060048201526014602482015273496e73756666696369656e742042616c616e636560601b60448201526064016106c8565b600860009054906101000a90046001600160a01b03166001600160a01b0316638dda8409836040518263ffffffff1660e01b81526004016000604051808303818588803b15801561082c57600080fd5b505af1158015610840573d6000803e3d6000fd5b50505050505050565b6040516e26a7a222a62fa222ab22a627a822a960891b6020820152602f016040516020818303038152906040528051906020012061088681610e67565b60076108928382611a45565b50816040516108a19190611b04565b604051908190038120907f1023f4f34de175fa6398682c249082d9dbd499b86a1aa83eea6b46f2b74b969f90600090a25050565b6001600160a01b0382166108ff57604051633250574960e11b8152600060048201526024016106c8565b600061090c838333610e74565b9050836001600160a01b0316816001600160a01b03161461095a576040516364283d7b60e01b81526001600160a01b03808616600483015260248201849052821660448201526064016106c8565b50505050565b6040516e26a7a222a62fa222ab22a627a822a960891b6020820152602f016040516020818303038152906040528051906020012061099d81610e67565b47806109e25760405162461bcd60e51b81526020600482015260146024820152734e6f2066756e647320746f20776974686472617760601b60448201526064016106c8565b604051600090339083908381818185875af1925050503d8060008114610a24576040519150601f19603f3d011682016040523d82523d6000602084013e610a29565b606091505b5050905080610a6e5760405162461bcd60e51b815260206004820152601160248201527015da5d1a191c985dd85b0819985a5b1959607a1b60448201526064016106c8565b60405182815233907f884edad9ce6fa2440d8a54cc123490eb96d2768479d49ff9c7366125a94243649060200160405180910390a2505050565b600082815260066020526040902060010154610ac381610e67565b61095a8383610f6d565b6001600160a01b0381163314610af65760405163334bd91960e11b815260040160405180910390fd5b610b008282611001565b505050565b610b0083838360405180602001604052806000815250610d1d565b6040516721a7a729aaa6a2a960c11b602082015260280160405160208183030381529060405280519060200120610b5681610e67565b600954341015610bb25760405162461bcd60e51b815260206004820152602160248201527f5061796d656e74206d7573742062652067726561746572207468616e207a65726044820152606f60f81b60648201526084016106c8565b60405134815233907f40c307e9ee87b4de7fdad3e4ac94081e74ca6248e6b08ea286ff2c939c08d9cd9060200160405180910390a250565b600061059382610e21565b6040516e26a7a222a62fa222ab22a627a822a960891b6020820152602f015b6040516020818303038152906040528051906020012081565b60006001600160a01b038216610c59576040516322718ad960e21b8152600060048201526024016106c8565b506001600160a01b031660009081526003602052604090205490565b6040516e26a7a222a62fa222ab22a627a822a960891b6020820152602f0160405160208183030381529060405280519060200120610cb281610e67565b610b00838361106e565b60009182526006602090815260408084206001600160a01b0393909316845291905290205460ff1690565b6060600180546105a8906119c4565b6040516721a7a729aaa6a2a960c11b6020820152602801610c14565b61066e338383611088565b610d288484846108d5565b61095a84848484611127565b6060610d3f82610e21565b506000610d5760408051602081019091526000815290565b90506000815111610d775760405180602001604052806000815250610da2565b80610d8184611250565b604051602001610d92929190611b20565b6040516020818303038152906040525b9392505050565b600082815260066020526040902060010154610dc481610e67565b61095a8383611001565b6001600160a01b03918216600090815260056020908152604080832093909416825291909152205460ff1690565b60006001600160e01b03198216637965db0b60e01b14806105935750610593826112e3565b6000818152600260205260408120546001600160a01b03168061059357604051637e27328960e01b8152600481018490526024016106c8565b610b008383836001611333565b610e718133611439565b50565b6000828152600260205260408120546001600160a01b0390811690831615610ea157610ea1818486611472565b6001600160a01b03811615610edf57610ebe600085600080611333565b6001600160a01b038116600090815260036020526040902080546000190190555b6001600160a01b03851615610f0e576001600160a01b0385166000908152600360205260409020805460010190555b60008481526002602052604080822080546001600160a01b0319166001600160a01b0389811691821790925591518793918516917fddf252ad1be2c89b69c2b068fc378daa952ba7f163c4a11628f55a4df523b3ef91a4949350505050565b6000610f798383610cbc565b610ff95760008381526006602090815260408083206001600160a01b03861684529091529020805460ff19166001179055610fb13390565b6001600160a01b0316826001600160a01b0316847f2f8788117e7eff1d82e926ec794901d17c78024a50270940304540a733656f0d60405160405180910390a4506001610593565b506000610593565b600061100d8383610cbc565b15610ff95760008381526006602090815260408083206001600160a01b0386168085529252808320805460ff1916905551339286917ff6391f5c32d9c69d2a47ea670b442974b53935d1edc7fd64eb21e047a839171b9190a4506001610593565b61066e8282604051806020016040528060008152506114d6565b6001600160a01b0382166110ba57604051630b61174360e31b81526001600160a01b03831660048201526024016106c8565b6001600160a01b03838116600081815260056020908152604080832094871680845294825291829020805460ff191686151590811790915591519182527f17307eab39ab6107e8899845ad3d59bd9653f200f220920489ca2b5937696c31910160405180910390a3505050565b6001600160a01b0383163b1561095a57604051630a85bd0160e11b81526001600160a01b0384169063150b7a0290611169903390889087908790600401611b4f565b6020604051808303816000875af19250505080156111a4575060408051601f3d908101601f191682019092526111a191810190611b8c565b60015b61120d573d8080156111d2576040519150601f19603f3d011682016040523d82523d6000602084013e6111d7565b606091505b50805160000361120557604051633250574960e11b81526001600160a01b03851660048201526024016106c8565b805181602001fd5b6001600160e01b03198116630a85bd0160e11b1461124957604051633250574960e11b81526001600160a01b03851660048201526024016106c8565b5050505050565b6060600061125d836114ed565b600101905060008167ffffffffffffffff81111561127d5761127d6117a0565b6040519080825280601f01601f1916602001820160405280156112a7576020820181803683370190505b5090508181016020015b600019016f181899199a1a9b1b9c1cb0b131b232b360811b600a86061a8153600a85049450846112b157509392505050565b60006001600160e01b031982166380ac58cd60e01b148061131457506001600160e01b03198216635b5e139f60e01b145b8061059357506301ffc9a760e01b6001600160e01b0319831614610593565b808061134757506001600160a01b03821615155b1561140957600061135784610e21565b90506001600160a01b038316158015906113835750826001600160a01b0316816001600160a01b031614155b801561139657506113948184610dce565b155b156113bf5760405163a9fbf51f60e01b81526001600160a01b03841660048201526024016106c8565b81156114075783856001600160a01b0316826001600160a01b03167f8c5be1e5ebec7d5bd14f71427d1e84f3dd0314c0f7b2291e5b200ac8c7c3b92560405160405180910390a45b505b5050600090815260046020526040902080546001600160a01b0319166001600160a01b0392909216919091179055565b6114438282610cbc565b61066e5760405163e2517d3f60e01b81526001600160a01b0382166004820152602481018390526044016106c8565b61147d8383836115c5565b610b00576001600160a01b0383166114ab57604051637e27328960e01b8152600481018290526024016106c8565b60405163177e802f60e01b81526001600160a01b0383166004820152602481018290526044016106c8565b6114e0838361162b565b610b006000848484611127565b60008072184f03e93ff9f4daa797ed6e38ed64bf6a1f0160401b831061152c5772184f03e93ff9f4daa797ed6e38ed64bf6a1f0160401b830492506040015b6d04ee2d6d415b85acef81000000008310611558576d04ee2d6d415b85acef8100000000830492506020015b662386f26fc10000831061157657662386f26fc10000830492506010015b6305f5e100831061158e576305f5e100830492506008015b61271083106115a257612710830492506004015b606483106115b4576064830492506002015b600a83106105935760010192915050565b60006001600160a01b038316158015906116235750826001600160a01b0316846001600160a01b031614806115ff57506115ff8484610dce565b8061162357506000828152600460205260409020546001600160a01b038481169116145b949350505050565b6001600160a01b03821661165557604051633250574960e11b8152600060048201526024016106c8565b600061166383836000610e74565b90506001600160a01b03811615610b00576040516339e3563760e11b8152600060048201526024016106c8565b6001600160e01b031981168114610e7157600080fd5b6000602082840312156116b857600080fd5b8135610da281611690565b60005b838110156116de5781810151838201526020016116c6565b50506000910152565b600081518084526116ff8160208601602086016116c3565b601f01601f19169290920160200192915050565b602081526000610da260208301846116e7565b60006020828403121561173857600080fd5b5035919050565b80356001600160a01b038116811461175657600080fd5b919050565b6000806040838503121561176e57600080fd5b6117778361173f565b946020939093013593505050565b60006020828403121561179757600080fd5b610da28261173f565b634e487b7160e01b600052604160045260246000fd5b60008067ffffffffffffffff8411156117d1576117d16117a0565b50604051601f19601f85018116603f0116810181811067ffffffffffffffff82111715611800576118006117a0565b60405283815290508082840185101561181857600080fd5b83836020830137600060208583010152509392505050565b60006020828403121561184257600080fd5b813567ffffffffffffffff81111561185957600080fd5b8201601f8101841361186a57600080fd5b611623848235602084016117b6565b60008060006060848603121561188e57600080fd5b6118978461173f565b92506118a56020850161173f565b929592945050506040919091013590565b600080604083850312156118c957600080fd5b823591506118d96020840161173f565b90509250929050565b600080604083850312156118f557600080fd5b6118fe8361173f565b91506020830135801515811461191357600080fd5b809150509250929050565b6000806000806080858703121561193457600080fd5b61193d8561173f565b935061194b6020860161173f565b925060408501359150606085013567ffffffffffffffff81111561196e57600080fd5b8501601f8101871361197f57600080fd5b61198e878235602084016117b6565b91505092959194509250565b600080604083850312156119ad57600080fd5b6119b68361173f565b91506118d96020840161173f565b600181811c908216806119d857607f821691505b6020821081036119f857634e487b7160e01b600052602260045260246000fd5b50919050565b601f821115610b0057806000526020600020601f840160051c81016020851015611a255750805b601f840160051c820191505b818110156112495760008155600101611a31565b815167ffffffffffffffff811115611a5f57611a5f6117a0565b611a7381611a6d84546119c4565b846119fe565b6020601f821160018114611aa75760008315611a8f5750848201515b600019600385901b1c1916600184901b178455611249565b600084815260208120601f198516915b82811015611ad75787850151825560209485019460019092019101611ab7565b5084821015611af55786840151600019600387901b60f8161c191681555b50505050600190811b01905550565b60008251611b168184602087016116c3565b9190910192915050565b60008351611b328184602088016116c3565b835190830190611b468183602088016116c3565b01949350505050565b6001600160a01b0385811682528416602082015260408101839052608060608201819052600090611b82908301846116e7565b9695505050505050565b600060208284031215611b9e57600080fd5b8151610da28161169056fea26469706673582212207bc17d31c8225640fc7b08d3fcc90aeca09a7c7a17b40038916bd53bf2d0fc6864736f6c634300081a0033608060405234801561001057600080fd5b5060405161187938038061187983398101604081905261002f91610352565b6040518060400160405280600f81526020016e29bab13634b1b2b739b2aa37b5b2b760891b8152506040518060400160405280600381526020016214d31560ea1b8152508160039081610082919061042d565b50600461008f828261042d565b50506040516d20a9a9a2aa2fa82927ab24a222a960911b60208201526100d59150602e01604051602081830303815290604052805190602001208461011d60201b60201c565b506100f68160126100e785600a610501565b6100f19190610501565b6101cd565b5050600780546001600160a01b0319166001600160a01b039290921691909117905561052b565b60008281526005602090815260408083206001600160a01b038516845290915281205460ff166101c35760008381526005602090815260408083206001600160a01b03861684529091529020805460ff1916600117905561017b3390565b6001600160a01b0316826001600160a01b0316847f2f8788117e7eff1d82e926ec794901d17c78024a50270940304540a733656f0d60405160405180910390a45060016101c7565b5060005b92915050565b6001600160a01b0382166101fc5760405163ec442f0560e01b8152600060048201526024015b60405180910390fd5b6102086000838361020c565b5050565b6001600160a01b03831661023757806002600082825461022c9190610518565b909155506102a99050565b6001600160a01b0383166000908152602081905260409020548181101561028a5760405163391434e360e21b81526001600160a01b038516600482015260248101829052604481018390526064016101f3565b6001600160a01b03841660009081526020819052604090209082900390555b6001600160a01b0382166102c5576002805482900390556102e4565b6001600160a01b03821660009081526020819052604090208054820190555b816001600160a01b0316836001600160a01b03167fddf252ad1be2c89b69c2b068fc378daa952ba7f163c4a11628f55a4df523b3ef8360405161032991815260200190565b60405180910390a3505050565b80516001600160a01b038116811461034d57600080fd5b919050565b60008060006060848603121561036757600080fd5b61037084610336565b92506020840151915061038560408501610336565b90509250925092565b634e487b7160e01b600052604160045260246000fd5b600181811c908216806103b857607f821691505b6020821081036103d857634e487b7160e01b600052602260045260246000fd5b50919050565b601f82111561042857806000526020600020601f840160051c810160208510156104055750805b601f840160051c820191505b818110156104255760008155600101610411565b50505b505050565b81516001600160401b038111156104465761044661038e565b61045a8161045484546103a4565b846103de565b6020601f82116001811461048e57600083156104765750848201515b600019600385901b1c1916600184901b178455610425565b600084815260208120601f198516915b828110156104be578785015182556020948501946001909201910161049e565b50848210156104dc5786840151600019600387901b60f8161c191681555b50505050600190811b01905550565b634e487b7160e01b600052601160045260246000fd5b80820281158282048414176101c7576101c76104eb565b808201808211156101c7576101c76104eb565b61133f8061053a6000396000f3fe60806040526004361061016a5760003560e01c806340c10f19116100d157806391d148541161008a578063a9059cbb11610064578063a9059cbb14610489578063d547741f146104a9578063dd62ed3e146104c9578063ec03e2411461050f57600080fd5b806391d148541461043f57806395d89b411461045f578063a217fddf1461047457600080fd5b806340c10f1914610363578063431f63c9146103835780635fed8aa8146103a35780636906766f146103a357806369ab800b146103c357806370a082311461040957600080fd5b806323b872dd1161012357806323b872dd146102a4578063248a9ca3146102c45780632f2ff15d146102f4578063313ce5671461031457806336568abe146103305780633bed33ce1461035057600080fd5b806301ffc9a7146101cc57806306fdde03146102015780630752881a14610223578063095ea7b31461023857806318160ddd14610258578063204120bc1461027757600080fd5b366101c75760405162461bcd60e51b815260206004820152602260248201527f446972656374204574686572207061796d656e7473206e6f7420616363657074604482015261195960f21b60648201526084015b60405180910390fd5b600080fd5b3480156101d857600080fd5b506101ec6101e73660046110f7565b610547565b60405190151581526020015b60405180910390f35b34801561020d57600080fd5b5061021661057e565b6040516101f89190611128565b61023661023136600461118b565b610610565b005b34801561024457600080fd5b506101ec61025336600461118b565b6108e1565b34801561026457600080fd5b506002545b6040519081526020016101f8565b34801561028357600080fd5b506102696102923660046111b7565b60066020526000908152604090205481565b3480156102b057600080fd5b506101ec6102bf3660046111d4565b6108f9565b3480156102d057600080fd5b506102696102df366004611215565b60009081526005602052604090206001015490565b34801561030057600080fd5b5061023661030f36600461122e565b61091d565b34801561032057600080fd5b50604051601281526020016101f8565b34801561033c57600080fd5b5061023661034b36600461122e565b610948565b61023661035e366004611215565b610980565b34801561036f57600080fd5b5061023661037e36600461118b565b610a5f565b34801561038f57600080fd5b5061023661039e36600461118b565b610aa5565b3480156103af57600080fd5b506102366103be36600461125e565b610b1b565b3480156103cf57600080fd5b506102696040516d20a9a9a2aa2fa82927ab24a222a960911b6020820152602e016040516020818303038152906040528051906020012081565b34801561041557600080fd5b506102696104243660046111b7565b6001600160a01b031660009081526020819052604090205490565b34801561044b57600080fd5b506101ec61045a36600461122e565b610c2e565b34801561046b57600080fd5b50610216610c59565b34801561048057600080fd5b50610269600081565b34801561049557600080fd5b506101ec6104a436600461118b565b610c68565b3480156104b557600080fd5b506102366104c436600461122e565b610c76565b3480156104d557600080fd5b506102696104e436600461125e565b6001600160a01b03918216600090815260016020908152604080832093909416825291909152205490565b34801561051b57600080fd5b5060075461052f906001600160a01b031681565b6040516001600160a01b0390911681526020016101f8565b60006001600160e01b03198216637965db0b60e01b148061057857506301ffc9a760e01b6001600160e01b03198316145b92915050565b60606003805461058d9061128c565b80601f01602080910402602001604051908101604052809291908181526020018280546105b99061128c565b80156106065780601f106105db57610100808354040283529160200191610606565b820191906000526020600020905b8154815290600101906020018083116105e957829003601f168201915b5050505050905090565b60006001600160a01b038316610694576000341161068d5760405162461bcd60e51b815260206004820152603460248201527f596f75206e65656420746f2073656e6420736f6d6520457468657220746f20626044820152737579207375626c6963656e736520746f6b656e7360601b60648201526084016101be565b50346107cb565b6001600160a01b038316600090815260066020526040902054806107055760405162461bcd60e51b815260206004820152602260248201527f54686973207061796d656e7420746f6b656e206973206e6f7420616363657074604482015261195960f21b60648201526084016101be565b6007546040516323b872dd60e01b81523360048201526001600160a01b03918216602482015260448101859052849350908516906323b872dd906064016020604051808303816000875af1158015610761573d6000803e3d6000fd5b505050506040513d601f19601f8201168201806040525081019061078591906112c6565b6107c95760405162461bcd60e51b8152602060048201526015602482015274151bdad95b881d1c985b9cd9995c8819985a5b1959605a1b60448201526064016101be565b505b6000811161082d5760405162461bcd60e51b815260206004820152602960248201527f496e73756666696369656e74207061796d656e7420616d6f756e7420746f2062604482015268757920746f6b656e7360b81b60648201526084016101be565b306000908152602081905260409020548181101561088d5760405162461bcd60e51b815260206004820181905260248201527f4e6f7420656e6f75676820746f6b656e7320696e20746865207265736572766560448201526064016101be565b610898303384610c9b565b604080518381526001600160a01b038616602082015233917fdeb694333db427a215bd304eb27e4cd3d611bfb117c37646ef7b4fffe5611bcc910160405180910390a250505050565b6000336108ef818585610cfa565b5060019392505050565b600033610907858285610d07565b610912858585610c9b565b506001949350505050565b60008281526005602052604090206001015461093881610d7f565b6109428383610d8c565b50505050565b6001600160a01b03811633146109715760405163334bd91960e11b815260040160405180910390fd5b61097b8282610e20565b505050565b6007546001600160a01b031633146109da5760405162461bcd60e51b815260206004820181905260248201527f43616c6c6572206973206e6f742074686520446174614e465420686f6c64657260448201526064016101be565b80471015610a215760405162461bcd60e51b8152602060048201526014602482015273496e73756666696369656e742062616c616e636560601b60448201526064016101be565b6007546040516001600160a01b039091169082156108fc029083906000818181858888f19350505050158015610a5b573d6000803e3d6000fd5b5050565b6040516d20a9a9a2aa2fa82927ab24a222a960911b6020820152602e0160405160208183030381529060405280519060200120610a9b81610d7f565b61097b8383610e8d565b6007546001600160a01b03163314610aff5760405162461bcd60e51b815260206004820181905260248201527f43616c6c6572206973206e6f742074686520446174614e465420686f6c64657260448201526064016101be565b6001600160a01b03909116600090815260066020526040902055565b816000610b3d836001600160a01b031660009081526020819052604090205490565b11610b9a5760405162461bcd60e51b815260206004820152602760248201527f5573657220646f6573206e6f74206f776e20616e79207375626c6963656e736560448201526620746f6b656e7360c81b60648201526084016101be565b604051630ae5e73960e01b81526001600160a01b038381166004830152821690630ae5e73990602401600060405180830381600087803b158015610bdd57600080fd5b505af1158015610bf1573d6000803e3d6000fd5b50506040516001600160a01b03851692507fdeb5c31899474fe8c086c95ff9344480d19365676a6a1d22d37bb8e3e7c0ef189150600090a2505050565b60009182526005602090815260408084206001600160a01b0393909316845291905290205460ff1690565b60606004805461058d9061128c565b6000336108ef818585610c9b565b600082815260056020526040902060010154610c9181610d7f565b6109428383610e20565b6001600160a01b038316610cc557604051634b637e8f60e11b8152600060048201526024016101be565b6001600160a01b038216610cef5760405163ec442f0560e01b8152600060048201526024016101be565b61097b838383610ebf565b61097b8383836001610fe9565b6001600160a01b0383811660009081526001602090815260408083209386168352929052205460001981146109425781811015610d7057604051637dc7a0d960e11b81526001600160a01b038416600482015260248101829052604481018390526064016101be565b61094284848484036000610fe9565b610d8981336110be565b50565b6000610d988383610c2e565b610e185760008381526005602090815260408083206001600160a01b03861684529091529020805460ff19166001179055610dd03390565b6001600160a01b0316826001600160a01b0316847f2f8788117e7eff1d82e926ec794901d17c78024a50270940304540a733656f0d60405160405180910390a4506001610578565b506000610578565b6000610e2c8383610c2e565b15610e185760008381526005602090815260408083206001600160a01b0386168085529252808320805460ff1916905551339286917ff6391f5c32d9c69d2a47ea670b442974b53935d1edc7fd64eb21e047a839171b9190a4506001610578565b6001600160a01b038216610eb75760405163ec442f0560e01b8152600060048201526024016101be565b610a5b600083835b6001600160a01b038316610eea578060026000828254610edf91906112e8565b90915550610f5c9050565b6001600160a01b03831660009081526020819052604090205481811015610f3d5760405163391434e360e21b81526001600160a01b038516600482015260248101829052604481018390526064016101be565b6001600160a01b03841660009081526020819052604090209082900390555b6001600160a01b038216610f7857600280548290039055610f97565b6001600160a01b03821660009081526020819052604090208054820190555b816001600160a01b0316836001600160a01b03167fddf252ad1be2c89b69c2b068fc378daa952ba7f163c4a11628f55a4df523b3ef83604051610fdc91815260200190565b60405180910390a3505050565b6001600160a01b0384166110135760405163e602df0560e01b8152600060048201526024016101be565b6001600160a01b03831661103d57604051634a1406b160e11b8152600060048201526024016101be565b6001600160a01b038085166000908152600160209081526040808320938716835292905220829055801561094257826001600160a01b0316846001600160a01b03167f8c5be1e5ebec7d5bd14f71427d1e84f3dd0314c0f7b2291e5b200ac8c7c3b925846040516110b091815260200190565b60405180910390a350505050565b6110c88282610c2e565b610a5b5760405163e2517d3f60e01b81526001600160a01b0382166004820152602481018390526044016101be565b60006020828403121561110957600080fd5b81356001600160e01b03198116811461112157600080fd5b9392505050565b602081526000825180602084015260005b818110156111565760208186018101516040868401015201611139565b506000604082850101526040601f19601f83011684010191505092915050565b6001600160a01b0381168114610d8957600080fd5b6000806040838503121561119e57600080fd5b82356111a981611176565b946020939093013593505050565b6000602082840312156111c957600080fd5b813561112181611176565b6000806000606084860312156111e957600080fd5b83356111f481611176565b9250602084013561120481611176565b929592945050506040919091013590565b60006020828403121561122757600080fd5b5035919050565b6000806040838503121561124157600080fd5b82359150602083013561125381611176565b809150509250929050565b6000806040838503121561127157600080fd5b823561127c81611176565b9150602083013561125381611176565b600181811c908216806112a057607f821691505b6020821081036112c057634e487b7160e01b600052602260045260246000fd5b50919050565b6000602082840312156112d857600080fd5b8151801515811461112157600080fd5b8082018082111561057857634e487b7160e01b600052601160045260246000fdfea26469706673582212202fd517ddf0a9c2e1eea9953987cbc68cffa221ce780756e8f1b83d8212735a0764736f6c634300081a0033a2646970667358221220dfc631364926e7c1aef5d900afbbe4ce0157bfce03010e3ecf56e9191650f0e464736f6c634300081a0033","linkReferences":{}},"methodIdentifiers":{"ASSET_PROVIDER()":"69ab800b","createModelNFT(string,string,uint256,string,address,uint256,uint256,address,address)":"2d70b243","getDeployedModelNFTs()":"761faea3","getDeployedSublicenseTokens()":"098306b9","modelNFTs(uint256)":"1227f772","owner()":"8da5cb5b","renounceOwnership()":"715018a6","setSublicenseTokenPrice(address,address,uint256)":"a3f3d0a7","sublicenseTokens(uint256)":"79428d1d","transferOwnership(address)":"f2fde38b"},"id":20}