{"abi":[{"type":"constructor","inputs":[{"name":"name","type":"string","internalType":"string"},{"name":"symbol","type":"string","internalType":"string"},{"name":"_ipfsURI","type":"string","internalType":"string"},{"name":"_price","type":"uint256","internalType":"uint256"},{"name":"_fee","type":"uint256","internalType":"uint256"}],"stateMutability":"nonpayable"},{"type":"receive","stateMutability":"payable"},{"type":"function","name":"DATA_PROVIDER","inputs":[],"outputs":[{"name":"","type":"bytes32","internalType":"bytes32"}],"stateMutability":"view"},{"type":"function","name":"DEFAULT_ADMIN_ROLE","inputs":[],"outputs":[{"name":"","type":"bytes32","internalType":"bytes32"}],"stateMutability":"view"},{"type":"function","name":"approve","inputs":[{"name":"to","type":"address","internalType":"address"},{"name":"tokenId","type":"uint256","internalType":"uint256"}],"outputs":[],"stateMutability":"nonpayable"},{"type":"function","name":"balanceOf","inputs":[{"name":"owner","type":"address","internalType":"address"}],"outputs":[{"name":"","type":"uint256","internalType":"uint256"}],"stateMutability":"view"},{"type":"function","name":"fee","inputs":[],"outputs":[{"name":"","type":"uint256","internalType":"uint256"}],"stateMutability":"view"},{"type":"function","name":"getApproved","inputs":[{"name":"tokenId","type":"uint256","internalType":"uint256"}],"outputs":[{"name":"","type":"address","internalType":"address"}],"stateMutability":"view"},{"type":"function","name":"getIPFSURI","inputs":[],"outputs":[{"name":"","type":"string","internalType":"string"}],"stateMutability":"view"},{"type":"function","name":"getRoleAdmin","inputs":[{"name":"role","type":"bytes32","internalType":"bytes32"}],"outputs":[{"name":"","type":"bytes32","internalType":"bytes32"}],"stateMutability":"view"},{"type":"function","name":"grantAccess","inputs":[{"name":"user","type":"address","internalType":"address"}],"outputs":[],"stateMutability":"nonpayable"},{"type":"function","name":"grantRole","inputs":[{"name":"role","type":"bytes32","internalType":"bytes32"},{"name":"account","type":"address","internalType":"address"}],"outputs":[],"stateMutability":"nonpayable"},{"type":"function","name":"hasRole","inputs":[{"name":"role","type":"bytes32","internalType":"bytes32"},{"name":"account","type":"address","internalType":"address"}],"outputs":[{"name":"","type":"bool","internalType":"bool"}],"stateMutability":"view"},{"type":"function","name":"isApprovedForAll","inputs":[{"name":"owner","type":"address","internalType":"address"},{"name":"operator","type":"address","internalType":"address"}],"outputs":[{"name":"","type":"bool","internalType":"bool"}],"stateMutability":"view"},{"type":"function","name":"name","inputs":[],"outputs":[{"name":"","type":"string","internalType":"string"}],"stateMutability":"view"},{"type":"function","name":"ownerOf","inputs":[{"name":"tokenId","type":"uint256","internalType":"uint256"}],"outputs":[{"name":"","type":"address","internalType":"address"}],"stateMutability":"view"},{"type":"function","name":"payForDataUsage","inputs":[],"outputs":[],"stateMutability":"payable"},{"type":"function","name":"payPredictionFee","inputs":[],"outputs":[],"stateMutability":"payable"},{"type":"function","name":"price","inputs":[],"outputs":[{"name":"","type":"uint256","internalType":"uint256"}],"stateMutability":"view"},{"type":"function","name":"renounceRole","inputs":[{"name":"role","type":"bytes32","internalType":"bytes32"},{"name":"callerConfirmation","type":"address","internalType":"address"}],"outputs":[],"stateMutability":"nonpayable"},{"type":"function","name":"revokeRole","inputs":[{"name":"role","type":"bytes32","internalType":"bytes32"},{"name":"account","type":"address","internalType":"address"}],"outputs":[],"stateMutability":"nonpayable"},{"type":"function","name":"safeDataMint","inputs":[{"name":"to","type":"address","internalType":"address"},{"name":"tokenId","type":"uint256","internalType":"uint256"}],"outputs":[],"stateMutability":"nonpayable"},{"type":"function","name":"safeTransferFrom","inputs":[{"name":"from","type":"address","internalType":"address"},{"name":"to","type":"address","internalType":"address"},{"name":"tokenId","type":"uint256","internalType":"uint256"}],"outputs":[],"stateMutability":"nonpayable"},{"type":"function","name":"safeTransferFrom","inputs":[{"name":"from","type":"address","internalType":"address"},{"name":"to","type":"address","internalType":"address"},{"name":"tokenId","type":"uint256","internalType":"uint256"},{"name":"data","type":"bytes","internalType":"bytes"}],"outputs":[],"stateMutability":"nonpayable"},{"type":"function","name":"setApprovalForAll","inputs":[{"name":"operator","type":"address","internalType":"address"},{"name":"approved","type":"bool","internalType":"bool"}],"outputs":[],"stateMutability":"nonpayable"},{"type":"function","name":"setIPFSURI","inputs":[{"name":"_ipfsURI","type":"string","internalType":"string"}],"outputs":[],"stateMutability":"nonpayable"},{"type":"function","name":"supportsInterface","inputs":[{"name":"interfaceId","type":"bytes4","internalType":"bytes4"}],"outputs":[{"name":"","type":"bool","internalType":"bool"}],"stateMutability":"view"},{"type":"function","name":"symbol","inputs":[],"outputs":[{"name":"","type":"string","internalType":"string"}],"stateMutability":"view"},{"type":"function","name":"tokenURI","inputs":[{"name":"tokenId","type":"uint256","internalType":"uint256"}],"outputs":[{"name":"","type":"string","internalType":"string"}],"stateMutability":"view"},{"type":"function","name":"transferFrom","inputs":[{"name":"from","type":"address","internalType":"address"},{"name":"to","type":"address","internalType":"address"},{"name":"tokenId","type":"uint256","internalType":"uint256"}],"outputs":[],"stateMutability":"nonpayable"},{"type":"function","name":"withdrawFunds","inputs":[],"outputs":[],"stateMutability":"nonpayable"},{"type":"event","name":"AccessGranted","inputs":[{"name":"user","type":"address","indexed":true,"internalType":"address"}],"anonymous":false},{"type":"event","name":"Approval","inputs":[{"name":"owner","type":"address","indexed":true,"internalType":"address"},{"name":"approved","type":"address","indexed":true,"internalType":"address"},{"name":"tokenId","type":"uint256","indexed":true,"internalType":"uint256"}],"anonymous":false},{"type":"event","name":"ApprovalForAll","inputs":[{"name":"owner","type":"address","indexed":true,"internalType":"address"},{"name":"operator","type":"address","indexed":true,"internalType":"address"},{"name":"approved","type":"bool","indexed":false,"internalType":"bool"}],"anonymous":false},{"type":"event","name":"DataUsagePaid","inputs":[{"name":"payer","type":"address","indexed":true,"internalType":"address"},{"name":"amount","type":"uint256","indexed":false,"internalType":"uint256"}],"anonymous":false},{"type":"event","name":"IPFSURISet","inputs":[{"name":"ipfsURI","type":"string","indexed":true,"internalType":"string"}],"anonymous":false},{"type":"event","name":"PredictionFeePaid","inputs":[{"name":"payer","type":"address","indexed":true,"internalType":"address"},{"name":"amount","type":"uint256","indexed":false,"internalType":"uint256"}],"anonymous":false},{"type":"event","name":"RoleAdminChanged","inputs":[{"name":"role","type":"bytes32","indexed":true,"internalType":"bytes32"},{"name":"previousAdminRole","type":"bytes32","indexed":true,"internalType":"bytes32"},{"name":"newAdminRole","type":"bytes32","indexed":true,"internalType":"bytes32"}],"anonymous":false},{"type":"event","name":"RoleGranted","inputs":[{"name":"role","type":"bytes32","indexed":true,"internalType":"bytes32"},{"name":"account","type":"address","indexed":true,"internalType":"address"},{"name":"sender","type":"address","indexed":true,"internalType":"address"}],"anonymous":false},{"type":"event","name":"RoleRevoked","inputs":[{"name":"role","type":"bytes32","indexed":true,"internalType":"bytes32"},{"name":"account","type":"address","indexed":true,"internalType":"address"},{"name":"sender","type":"address","indexed":true,"internalType":"address"}],"anonymous":false},{"type":"event","name":"Transfer","inputs":[{"name":"from","type":"address","indexed":true,"internalType":"address"},{"name":"to","type":"address","indexed":true,"internalType":"address"},{"name":"tokenId","type":"uint256","indexed":true,"internalType":"uint256"}],"anonymous":false},{"type":"event","name":"Withdraw","inputs":[{"name":"recipient","type":"address","indexed":true,"internalType":"address"},{"name":"amount","type":"uint256","indexed":false,"internalType":"uint256"}],"anonymous":false},{"type":"error","name":"AccessControlBadConfirmation","inputs":[]},{"type":"error","name":"AccessControlUnauthorizedAccount","inputs":[{"name":"account","type":"address","internalType":"address"},{"name":"neededRole","type":"bytes32","internalType":"bytes32"}]},{"type":"error","name":"ERC721IncorrectOwner","inputs":[{"name":"sender","type":"address","internalType":"address"},{"name":"tokenId","type":"uint256","internalType":"uint256"},{"name":"owner","type":"address","internalType":"address"}]},{"type":"error","name":"ERC721InsufficientApproval","inputs":[{"name":"operator","type":"address","internalType":"address"},{"name":"tokenId","type":"uint256","internalType":"uint256"}]},{"type":"error","name":"ERC721InvalidApprover","inputs":[{"name":"approver","type":"address","internalType":"address"}]},{"type":"error","name":"ERC721InvalidOperator","inputs":[{"name":"operator","type":"address","internalType":"address"}]},{"type":"error","name":"ERC721InvalidOwner","inputs":[{"name":"owner","type":"address","internalType":"address"}]},{"type":"error","name":"ERC721InvalidReceiver","inputs":[{"name":"receiver","type":"address","internalType":"address"}]},{"type":"error","name":"ERC721InvalidSender","inputs":[{"name":"sender","type":"address","internalType":"address"}]},{"type":"error","name":"ERC721NonexistentToken","inputs":[{"name":"tokenId","type":"uint256","internalType":"uint256"}]}],"bytecode":{"object":"0x608060405234801561001057600080fd5b50604051611e6d380380611e6d83398101604081905261002f91610218565b8484600061003d8382610349565b50600161004a8282610349565b50506040516c2220aa20afa82927ab24a222a960991b602082015261008f9150602d0160405160208183030381529060405280519060200120336100af60201b60201c565b50600761009c8482610349565b5060089190915560095550610407915050565b60008281526006602090815260408083206001600160a01b038516845290915281205460ff166101555760008381526006602090815260408083206001600160a01b03861684529091529020805460ff1916600117905561010d3390565b6001600160a01b0316826001600160a01b0316847f2f8788117e7eff1d82e926ec794901d17c78024a50270940304540a733656f0d60405160405180910390a4506001610159565b5060005b92915050565b634e487b7160e01b600052604160045260246000fd5b600082601f83011261018657600080fd5b81516001600160401b0381111561019f5761019f61015f565b604051601f8201601f19908116603f011681016001600160401b03811182821017156101cd576101cd61015f565b6040528181528382016020018510156101e557600080fd5b60005b82811015610204576020818601810151838301820152016101e8565b506000918101602001919091529392505050565b600080600080600060a0868803121561023057600080fd5b85516001600160401b0381111561024657600080fd5b61025288828901610175565b602088015190965090506001600160401b0381111561027057600080fd5b61027c88828901610175565b604088015190955090506001600160401b0381111561029a57600080fd5b6102a688828901610175565b606088015160809098015196999598509695949350505050565b600181811c908216806102d457607f821691505b6020821081036102f457634e487b7160e01b600052602260045260246000fd5b50919050565b601f82111561034457806000526020600020601f840160051c810160208510156103215750805b601f840160051c820191505b81811015610341576000815560010161032d565b50505b505050565b81516001600160401b038111156103625761036261015f565b6103768161037084546102c0565b846102fa565b6020601f8211600181146103aa57600083156103925750848201515b600019600385901b1c1916600184901b178455610341565b600084815260208120601f198516915b828110156103da57878501518255602094850194600190920191016103ba565b50848210156103f85786840151600019600387901b60f8161c191681555b50505050600190811b01905550565b611a57806104166000396000f3fe6080604052600436106101c65760003560e01c806370a08231116100f7578063a22cb46511610095578063d547741f11610064578063d547741f14610518578063ddca3f4314610538578063e985e9c51461054e578063ef8b62011461056e57600080fd5b8063a22cb46514610473578063b88d4fde14610493578063c396cbf4146104b3578063c87b56dd146104f857600080fd5b806391d14854116100d157806391d148541461041357806395d89b4114610433578063a035b1fe14610448578063a217fddf1461045e57600080fd5b806370a08231146103cb578063857fb5b2146103eb5780638dda84091461040b57600080fd5b806323b872dd116101645780632f2ff15d1161013e5780632f2ff15d1461034b57806336568abe1461036b57806342842e0e1461038b5780636352211e146103ab57600080fd5b806323b872dd146102d857806324600fc3146102f8578063248a9ca31461030d57600080fd5b806308865d19116101a057806308865d1914610261578063095ea7b3146102765780630ae5e739146102985780632389b280146102b857600080fd5b806301ffc9a7146101d257806306fdde0314610207578063081812fc1461022957600080fd5b366101cd57005b600080fd5b3480156101de57600080fd5b506101f26101ed3660046114dd565b610576565b60405190151581526020015b60405180910390f35b34801561021357600080fd5b5061021c610587565b6040516101fe919061154a565b34801561023557600080fd5b5061024961024436600461155d565b610619565b6040516001600160a01b0390911681526020016101fe565b34801561026d57600080fd5b5061021c610642565b34801561028257600080fd5b50610296610291366004611592565b610651565b005b3480156102a457600080fd5b506102966102b33660046115bc565b610660565b3480156102c457600080fd5b506102966102d3366004611667565b6106f6565b3480156102e457600080fd5b506102966102f33660046116b0565b610780565b34801561030457600080fd5b5061029661080b565b34801561031957600080fd5b5061033d61032836600461155d565b60009081526006602052604090206001015490565b6040519081526020016101fe565b34801561035757600080fd5b506102966103663660046116ed565b610951565b34801561037757600080fd5b506102966103863660046116ed565b610976565b34801561039757600080fd5b506102966103a63660046116b0565b6109ae565b3480156103b757600080fd5b506102496103c636600461155d565b6109c9565b3480156103d757600080fd5b5061033d6103e63660046115bc565b6109d4565b3480156103f757600080fd5b50610296610406366004611592565b610a1c565b610296610a61565b34801561041f57600080fd5b506101f261042e3660046116ed565b610abb565b34801561043f57600080fd5b5061021c610ae6565b34801561045457600080fd5b5061033d60085481565b34801561046a57600080fd5b5061033d600081565b34801561047f57600080fd5b5061029661048e366004611719565b610af5565b34801561049f57600080fd5b506102966104ae366004611755565b610b00565b3480156104bf57600080fd5b5061033d6040516c2220aa20afa82927ab24a222a960991b6020820152602d016040516020818303038152906040528051906020012081565b34801561050457600080fd5b5061021c61051336600461155d565b610b17565b34801561052457600080fd5b506102966105333660046116ed565b610b8c565b34801561054457600080fd5b5061033d60095481565b34801561055a57600080fd5b506101f26105693660046117d1565b610bb1565b610296610bdf565b600061058182610c33565b92915050565b606060008054610596906117fb565b80601f01602080910402602001604051908101604052809291908181526020018280546105c2906117fb565b801561060f5780601f106105e45761010080835404028352916020019161060f565b820191906000526020600020905b8154815290600101906020018083116105f257829003601f168201915b5050505050905090565b600061062482610c58565b506000828152600460205260409020546001600160a01b0316610581565b606060078054610596906117fb565b61065c828233610c91565b5050565b60085461066c826109d4565b10156106bf5760405162461bcd60e51b815260206004820152601c60248201527f5573657220646f6573206e6f74206f776e20616e7920746f6b656e730000000060448201526064015b60405180910390fd5b6040516001600160a01b038216907fdeb5c31899474fe8c086c95ff9344480d19365676a6a1d22d37bb8e3e7c0ef1890600090a250565b6040516c2220aa20afa82927ab24a222a960991b6020820152602d016040516020818303038152906040528051906020012061073181610c9e565b600761073d838261187c565b508160405161074c919061193b565b604051908190038120907f1023f4f34de175fa6398682c249082d9dbd499b86a1aa83eea6b46f2b74b969f90600090a25050565b6001600160a01b0382166107aa57604051633250574960e11b8152600060048201526024016106b6565b60006107b7838333610cab565b9050836001600160a01b0316816001600160a01b031614610805576040516364283d7b60e01b81526001600160a01b03808616600483015260248201849052821660448201526064016106b6565b50505050565b6040516c2220aa20afa82927ab24a222a960991b6020820152602d016040516020818303038152906040528051906020012061084681610c9e565b478061088b5760405162461bcd60e51b81526020600482015260146024820152734e6f2066756e647320746f20776974686472617760601b60448201526064016106b6565b604051600090339083908381818185875af1925050503d80600081146108cd576040519150601f19603f3d011682016040523d82523d6000602084013e6108d2565b606091505b50509050806109175760405162461bcd60e51b815260206004820152601160248201527015da5d1a191c985dd85b0819985a5b1959607a1b60448201526064016106b6565b60405182815233907f884edad9ce6fa2440d8a54cc123490eb96d2768479d49ff9c7366125a94243649060200160405180910390a2505050565b60008281526006602052604090206001015461096c81610c9e565b6108058383610da4565b6001600160a01b038116331461099f5760405163334bd91960e11b815260040160405180910390fd5b6109a98282610e38565b505050565b6109a983838360405180602001604052806000815250610b00565b600061058182610c58565b60006001600160a01b038216610a00576040516322718ad960e21b8152600060048201526024016106b6565b506001600160a01b031660009081526003602052604090205490565b6040516c2220aa20afa82927ab24a222a960991b6020820152602d0160405160208183030381529060405280519060200120610a5781610c9e565b6109a98383610ea5565b600854341015610a835760405162461bcd60e51b81526004016106b690611957565b60405134815233907f40c307e9ee87b4de7fdad3e4ac94081e74ca6248e6b08ea286ff2c939c08d9cd906020015b60405180910390a2565b60009182526006602090815260408084206001600160a01b0393909316845291905290205460ff1690565b606060018054610596906117fb565b61065c338383610ebf565b610b0b848484610780565b61080584848484610f5e565b6060610b2282610c58565b506000610b3a60408051602081019091526000815290565b90506000815111610b5a5760405180602001604052806000815250610b85565b80610b6484611087565b604051602001610b75929190611998565b6040516020818303038152906040525b9392505050565b600082815260066020526040902060010154610ba781610c9e565b6108058383610e38565b6001600160a01b03918216600090815260056020908152604080832093909416825291909152205460ff1690565b600954341015610c015760405162461bcd60e51b81526004016106b690611957565b60405134815233907fa92c580113c005957e0fa2b2bafccbf16a9f460de84331307abca6356c83ba0690602001610ab1565b60006001600160e01b03198216637965db0b60e01b148061058157506105818261111a565b6000818152600260205260408120546001600160a01b03168061058157604051637e27328960e01b8152600481018490526024016106b6565b6109a9838383600161116a565b610ca88133611270565b50565b6000828152600260205260408120546001600160a01b0390811690831615610cd857610cd88184866112a9565b6001600160a01b03811615610d1657610cf560008560008061116a565b6001600160a01b038116600090815260036020526040902080546000190190555b6001600160a01b03851615610d45576001600160a01b0385166000908152600360205260409020805460010190555b60008481526002602052604080822080546001600160a01b0319166001600160a01b0389811691821790925591518793918516917fddf252ad1be2c89b69c2b068fc378daa952ba7f163c4a11628f55a4df523b3ef91a4949350505050565b6000610db08383610abb565b610e305760008381526006602090815260408083206001600160a01b03861684529091529020805460ff19166001179055610de83390565b6001600160a01b0316826001600160a01b0316847f2f8788117e7eff1d82e926ec794901d17c78024a50270940304540a733656f0d60405160405180910390a4506001610581565b506000610581565b6000610e448383610abb565b15610e305760008381526006602090815260408083206001600160a01b0386168085529252808320805460ff1916905551339286917ff6391f5c32d9c69d2a47ea670b442974b53935d1edc7fd64eb21e047a839171b9190a4506001610581565b61065c82826040518060200160405280600081525061130d565b6001600160a01b038216610ef157604051630b61174360e31b81526001600160a01b03831660048201526024016106b6565b6001600160a01b03838116600081815260056020908152604080832094871680845294825291829020805460ff191686151590811790915591519182527f17307eab39ab6107e8899845ad3d59bd9653f200f220920489ca2b5937696c31910160405180910390a3505050565b6001600160a01b0383163b1561080557604051630a85bd0160e11b81526001600160a01b0384169063150b7a0290610fa09033908890879087906004016119c7565b6020604051808303816000875af1925050508015610fdb575060408051601f3d908101601f19168201909252610fd891810190611a04565b60015b611044573d808015611009576040519150601f19603f3d011682016040523d82523d6000602084013e61100e565b606091505b50805160000361103c57604051633250574960e11b81526001600160a01b03851660048201526024016106b6565b805181602001fd5b6001600160e01b03198116630a85bd0160e11b1461108057604051633250574960e11b81526001600160a01b03851660048201526024016106b6565b5050505050565b6060600061109483611324565b600101905060008167ffffffffffffffff8111156110b4576110b46115d7565b6040519080825280601f01601f1916602001820160405280156110de576020820181803683370190505b5090508181016020015b600019016f181899199a1a9b1b9c1cb0b131b232b360811b600a86061a8153600a85049450846110e857509392505050565b60006001600160e01b031982166380ac58cd60e01b148061114b57506001600160e01b03198216635b5e139f60e01b145b8061058157506301ffc9a760e01b6001600160e01b0319831614610581565b808061117e57506001600160a01b03821615155b1561124057600061118e84610c58565b90506001600160a01b038316158015906111ba5750826001600160a01b0316816001600160a01b031614155b80156111cd57506111cb8184610bb1565b155b156111f65760405163a9fbf51f60e01b81526001600160a01b03841660048201526024016106b6565b811561123e5783856001600160a01b0316826001600160a01b03167f8c5be1e5ebec7d5bd14f71427d1e84f3dd0314c0f7b2291e5b200ac8c7c3b92560405160405180910390a45b505b5050600090815260046020526040902080546001600160a01b0319166001600160a01b0392909216919091179055565b61127a8282610abb565b61065c5760405163e2517d3f60e01b81526001600160a01b0382166004820152602481018390526044016106b6565b6112b48383836113fc565b6109a9576001600160a01b0383166112e257604051637e27328960e01b8152600481018290526024016106b6565b60405163177e802f60e01b81526001600160a01b0383166004820152602481018290526044016106b6565b6113178383611462565b6109a96000848484610f5e565b60008072184f03e93ff9f4daa797ed6e38ed64bf6a1f0160401b83106113635772184f03e93ff9f4daa797ed6e38ed64bf6a1f0160401b830492506040015b6d04ee2d6d415b85acef8100000000831061138f576d04ee2d6d415b85acef8100000000830492506020015b662386f26fc1000083106113ad57662386f26fc10000830492506010015b6305f5e10083106113c5576305f5e100830492506008015b61271083106113d957612710830492506004015b606483106113eb576064830492506002015b600a83106105815760010192915050565b60006001600160a01b0383161580159061145a5750826001600160a01b0316846001600160a01b0316148061143657506114368484610bb1565b8061145a57506000828152600460205260409020546001600160a01b038481169116145b949350505050565b6001600160a01b03821661148c57604051633250574960e11b8152600060048201526024016106b6565b600061149a83836000610cab565b90506001600160a01b038116156109a9576040516339e3563760e11b8152600060048201526024016106b6565b6001600160e01b031981168114610ca857600080fd5b6000602082840312156114ef57600080fd5b8135610b85816114c7565b60005b838110156115155781810151838201526020016114fd565b50506000910152565b600081518084526115368160208601602086016114fa565b601f01601f19169290920160200192915050565b602081526000610b85602083018461151e565b60006020828403121561156f57600080fd5b5035919050565b80356001600160a01b038116811461158d57600080fd5b919050565b600080604083850312156115a557600080fd5b6115ae83611576565b946020939093013593505050565b6000602082840312156115ce57600080fd5b610b8582611576565b634e487b7160e01b600052604160045260246000fd5b60008067ffffffffffffffff841115611608576116086115d7565b50604051601f19601f85018116603f0116810181811067ffffffffffffffff82111715611637576116376115d7565b60405283815290508082840185101561164f57600080fd5b83836020830137600060208583010152509392505050565b60006020828403121561167957600080fd5b813567ffffffffffffffff81111561169057600080fd5b8201601f810184136116a157600080fd5b61145a848235602084016115ed565b6000806000606084860312156116c557600080fd5b6116ce84611576565b92506116dc60208501611576565b929592945050506040919091013590565b6000806040838503121561170057600080fd5b8235915061171060208401611576565b90509250929050565b6000806040838503121561172c57600080fd5b61173583611576565b91506020830135801515811461174a57600080fd5b809150509250929050565b6000806000806080858703121561176b57600080fd5b61177485611576565b935061178260208601611576565b925060408501359150606085013567ffffffffffffffff8111156117a557600080fd5b8501601f810187136117b657600080fd5b6117c5878235602084016115ed565b91505092959194509250565b600080604083850312156117e457600080fd5b6117ed83611576565b915061171060208401611576565b600181811c9082168061180f57607f821691505b60208210810361182f57634e487b7160e01b600052602260045260246000fd5b50919050565b601f8211156109a957806000526020600020601f840160051c8101602085101561185c5750805b601f840160051c820191505b818110156110805760008155600101611868565b815167ffffffffffffffff811115611896576118966115d7565b6118aa816118a484546117fb565b84611835565b6020601f8211600181146118de57600083156118c65750848201515b600019600385901b1c1916600184901b178455611080565b600084815260208120601f198516915b8281101561190e57878501518255602094850194600190920191016118ee565b508482101561192c5786840151600019600387901b60f8161c191681555b50505050600190811b01905550565b6000825161194d8184602087016114fa565b9190910192915050565b60208082526021908201527f5061796d656e74206d7573742062652067726561746572207468616e207a65726040820152606f60f81b606082015260800190565b600083516119aa8184602088016114fa565b8351908301906119be8183602088016114fa565b01949350505050565b6001600160a01b03858116825284166020820152604081018390526080606082018190526000906119fa9083018461151e565b9695505050505050565b600060208284031215611a1657600080fd5b8151610b85816114c756fea2646970667358221220b2f86c86c4ef8cd09656fa3a6575a5d67daf88bf37da2591c881094187b8720d64736f6c634300081a0033","linkReferences":{}},"methodIdentifiers":{"DATA_PROVIDER()":"c396cbf4","DEFAULT_ADMIN_ROLE()":"a217fddf","approve(address,uint256)":"095ea7b3","balanceOf(address)":"70a08231","fee()":"ddca3f43","getApproved(uint256)":"081812fc","getIPFSURI()":"08865d19","getRoleAdmin(bytes32)":"248a9ca3","grantAccess(address)":"0ae5e739","grantRole(bytes32,address)":"2f2ff15d","hasRole(bytes32,address)":"91d14854","isApprovedForAll(address,address)":"e985e9c5","name()":"06fdde03","ownerOf(uint256)":"6352211e","payForDataUsage()":"8dda8409","payPredictionFee()":"ef8b6201","price()":"a035b1fe","renounceRole(bytes32,address)":"36568abe","revokeRole(bytes32,address)":"d547741f","safeDataMint(address,uint256)":"857fb5b2","safeTransferFrom(address,address,uint256)":"42842e0e","safeTransferFrom(address,address,uint256,bytes)":"b88d4fde","setApprovalForAll(address,bool)":"a22cb465","setIPFSURI(string)":"2389b280","supportsInterface(bytes4)":"01ffc9a7","symbol()":"95d89b41","tokenURI(uint256)":"c87b56dd","transferFrom(address,address,uint256)":"23b872dd","withdrawFunds()":"24600fc3"},"id":21}